{"abi":[{"inputs":[{"internalType":"address","name":"sender","type":"address"},{"internalType":"string","name":"title","type":"string"},{"internalType":"uint256","name":"deadline","type":"uint256"},{"internalType":"uint256","name":"minimum","type":"uint256"}],"stateMutability":"nonpayable","type":"constructor"},{"inputs":[],"name":"details","outputs":[{"internalType":"string","name":"title","type":"string"},{"internalType":"uint256","name":"deadline","type":"uint256"}],"stateMutability":"view","type":"function"},{"inputs":[],"name":"enter","outputs":[],"stateMutability":"payable","type":"function"},{"inputs":[],"name":"getPlayers","outputs":[{"internalType":"address[]","name":"","type":"address[]"}],"stateMutability":"view","type":"function"},{"inputs":[],"name":"manager","outputs":[{"internalType":"address","name":"","type":"address"}],"stateMutability":"view","type":"function"},{"inputs":[],"name":"minimumContribution","outputs":[{"internalType":"uint256","name":"","type":"uint256"}],"stateMutability":"view","type":"function"},{"inputs":[],"name":"pickWinner","outputs":[],"stateMutability":"nonpayable","type":"function"},{"inputs":[{"internalType":"uint256","name":"","type":"uint256"}],"name":"players","outputs":[{"internalType":"address","name":"","type":"address"}],"stateMutability":"view","type":"function"},{"inputs":[],"name":"winner","outputs":[{"internalType":"address","name":"","type":"address"}],"stateMutability":"view","type":"function"}],"devdoc":{"kind":"dev","methods":{},"version":1},"evm":{"assembly":"    /* \"Lottery.sol\":665:1977  contract Lottery {... */\n  mstore(0x40, 0x80)\n    /* \"Lottery.sol\":922:1198  constructor(address sender, string memory title, uint deadline, uint minimum) {... */\n  callvalue\n  dup1\n  iszero\n  tag_1\n  jumpi\n  0x00\n  dup1\n  revert\ntag_1:\n  pop\n  mload(0x40)\n  sub(codesize, bytecodeSize)\n  dup1\n  bytecodeSize\n  dup4\n  codecopy\n  dup2\n  dup2\n  add\n  0x40\n  mstore\n  dup2\n  add\n  swap1\n  tag_2\n  swap2\n  swap1\n  tag_3\n  jump\t// in\ntag_2:\n    /* \"Lottery.sol\":1021:1027  sender */\n  dup4\n    /* \"Lottery.sol\":1011:1018  manager */\n  0x00\n  dup1\n    /* \"Lottery.sol\":1011:1027  manager = sender */\n  0x0100\n  exp\n  dup2\n  sload\n  dup2\n  0xffffffffffffffffffffffffffffffffffffffff\n  mul\n  not\n  and\n  swap1\n  dup4\n  0xffffffffffffffffffffffffffffffffffffffff\n  and\n  mul\n  or\n  swap1\n  sstore\n  pop\n    /* \"Lottery.sol\":1060:1067  minimum */\n  dup1\n    /* \"Lottery.sol\":1038:1057  minimumContribution */\n  0x03\n    /* \"Lottery.sol\":1038:1067  minimumContribution = minimum */\n  dup2\n  swap1\n  sstore\n  pop\n    /* \"Lottery.sol\":1078:1104  Details storage newDetails */\n  0x00\n    /* \"Lottery.sol\":1107:1114  details */\n  0x04\n    /* \"Lottery.sol\":1078:1114  Details storage newDetails = details */\n  swap1\n  pop\n    /* \"Lottery.sol\":1144:1149  title */\n  dup4\n    /* \"Lottery.sol\":1125:1135  newDetails */\n  dup2\n    /* \"Lottery.sol\":1125:1141  newDetails.title */\n  0x00\n  add\n    /* \"Lottery.sol\":1125:1149  newDetails.title = title */\n  swap1\n  dup2\n  tag_6\n  swap2\n  swap1\n  tag_7\n  jump\t// in\ntag_6:\n  pop\n    /* \"Lottery.sol\":1182:1190  deadline */\n  dup3\n    /* \"Lottery.sol\":1160:1170  newDetails */\n  dup2\n    /* \"Lottery.sol\":1160:1179  newDetails.deadline */\n  0x01\n  add\n    /* \"Lottery.sol\":1160:1190  newDetails.deadline = deadline */\n  dup2\n  swap1\n  sstore\n  pop\n    /* \"Lottery.sol\":1000:1198  {... */\n  pop\n    /* \"Lottery.sol\":922:1198  constructor(address sender, string memory title, uint deadline, uint minimum) {... */\n  pop\n  pop\n  pop\n  pop\n    /* \"Lottery.sol\":665:1977  contract Lottery {... */\n  jump(tag_8)\n    /* \"#utility.yul\":7:82   */\ntag_9:\n    /* \"#utility.yul\":40:46   */\n  0x00\n    /* \"#utility.yul\":73:75   */\n  0x40\n    /* \"#utility.yul\":67:76   */\n  mload\n    /* \"#utility.yul\":57:76   */\n  swap1\n  pop\n    /* \"#utility.yul\":7:82   */\n  swap1\n  jump\t// out\n    /* \"#utility.yul\":88:205   */\ntag_10:\n    /* \"#utility.yul\":197:198   */\n  0x00\n    /* \"#utility.yul\":194:195   */\n  dup1\n    /* \"#utility.yul\":187:199   */\n  revert\n    /* \"#utility.yul\":211:328   */\ntag_11:\n    /* \"#utility.yul\":320:321   */\n  0x00\n    /* \"#utility.yul\":317:318   */\n  dup1\n    /* \"#utility.yul\":310:322   */\n  revert\n    /* \"#utility.yul\":334:460   */\ntag_12:\n    /* \"#utility.yul\":371:378   */\n  0x00\n    /* \"#utility.yul\":411:453   */\n  0xffffffffffffffffffffffffffffffffffffffff\n    /* \"#utility.yul\":404:409   */\n  dup3\n    /* \"#utility.yul\":400:454   */\n  and\n    /* \"#utility.yul\":389:454   */\n  swap1\n  pop\n    /* \"#utility.yul\":334:460   */\n  swap2\n  swap1\n  pop\n  jump\t// out\n    /* \"#utility.yul\":466:562   */\ntag_13:\n    /* \"#utility.yul\":503:510   */\n  0x00\n    /* \"#utility.yul\":532:556   */\n  tag_53\n    /* \"#utility.yul\":550:555   */\n  dup3\n    /* \"#utility.yul\":532:556   */\n  tag_12\n  jump\t// in\ntag_53:\n    /* \"#utility.yul\":521:556   */\n  swap1\n  pop\n    /* \"#utility.yul\":466:562   */\n  swap2\n  swap1\n  pop\n  jump\t// out\n    /* \"#utility.yul\":568:690   */\ntag_14:\n    /* \"#utility.yul\":641:665   */\n  tag_55\n    /* \"#utility.yul\":659:664   */\n  dup2\n    /* \"#utility.yul\":641:665   */\n  tag_13\n  jump\t// in\ntag_55:\n    /* \"#utility.yul\":634:639   */\n  dup2\n    /* \"#utility.yul\":631:666   */\n  eq\n    /* \"#utility.yul\":621:684   */\n  tag_56\n  jumpi\n    /* \"#utility.yul\":680:681   */\n  0x00\n    /* \"#utility.yul\":677:678   */\n  dup1\n    /* \"#utility.yul\":670:682   */\n  revert\n    /* \"#utility.yul\":621:684   */\ntag_56:\n    /* \"#utility.yul\":568:690   */\n  pop\n  jump\t// out\n    /* \"#utility.yul\":696:839   */\ntag_15:\n    /* \"#utility.yul\":753:758   */\n  0x00\n    /* \"#utility.yul\":784:790   */\n  dup2\n    /* \"#utility.yul\":778:791   */\n  mload\n    /* \"#utility.yul\":769:791   */\n  swap1\n  pop\n    /* \"#utility.yul\":800:833   */\n  tag_58\n    /* \"#utility.yul\":827:832   */\n  dup2\n    /* \"#utility.yul\":800:833   */\n  tag_14\n  jump\t// in\ntag_58:\n    /* \"#utility.yul\":696:839   */\n  swap3\n  swap2\n  pop\n  pop\n  jump\t// out\n    /* \"#utility.yul\":845:962   */\ntag_16:\n    /* \"#utility.yul\":954:955   */\n  0x00\n    /* \"#utility.yul\":951:952   */\n  dup1\n    /* \"#utility.yul\":944:956   */\n  revert\n    /* \"#utility.yul\":968:1085   */\ntag_17:\n    /* \"#utility.yul\":1077:1078   */\n  0x00\n    /* \"#utility.yul\":1074:1075   */\n  dup1\n    /* \"#utility.yul\":1067:1079   */\n  revert\n    /* \"#utility.yul\":1091:1193   */\ntag_18:\n    /* \"#utility.yul\":1132:1138   */\n  0x00\n    /* \"#utility.yul\":1183:1185   */\n  0x1f\n    /* \"#utility.yul\":1179:1186   */\n  not\n    /* \"#utility.yul\":1174:1176   */\n  0x1f\n    /* \"#utility.yul\":1167:1172   */\n  dup4\n    /* \"#utility.yul\":1163:1177   */\n  add\n    /* \"#utility.yul\":1159:1187   */\n  and\n    /* \"#utility.yul\":1149:1187   */\n  swap1\n  pop\n    /* \"#utility.yul\":1091:1193   */\n  swap2\n  swap1\n  pop\n  jump\t// out\n    /* \"#utility.yul\":1199:1379   */\ntag_19:\n    /* \"#utility.yul\":1247:1324   */\n  0x4e487b7100000000000000000000000000000000000000000000000000000000\n    /* \"#utility.yul\":1244:1245   */\n  0x00\n    /* \"#utility.yul\":1237:1325   */\n  mstore\n    /* \"#utility.yul\":1344:1348   */\n  0x41\n    /* \"#utility.yul\":1341:1342   */\n  0x04\n    /* \"#utility.yul\":1334:1349   */\n  mstore\n    /* \"#utility.yul\":1368:1372   */\n  0x24\n    /* \"#utility.yul\":1365:1366   */\n  0x00\n    /* \"#utility.yul\":1358:1373   */\n  revert\n    /* \"#utility.yul\":1385:1666   */\ntag_20:\n    /* \"#utility.yul\":1468:1495   */\n  tag_64\n    /* \"#utility.yul\":1490:1494   */\n  dup3\n    /* \"#utility.yul\":1468:1495   */\n  tag_18\n  jump\t// in\ntag_64:\n    /* \"#utility.yul\":1460:1466   */\n  dup2\n    /* \"#utility.yul\":1456:1496   */\n  add\n    /* \"#utility.yul\":1598:1604   */\n  dup2\n    /* \"#utility.yul\":1586:1596   */\n  dup2\n    /* \"#utility.yul\":1583:1605   */\n  lt\n    /* \"#utility.yul\":1562:1580   */\n  0xffffffffffffffff\n    /* \"#utility.yul\":1550:1560   */\n  dup3\n    /* \"#utility.yul\":1547:1581   */\n  gt\n    /* \"#utility.yul\":1544:1606   */\n  or\n    /* \"#utility.yul\":1541:1629   */\n  iszero\n  tag_65\n  jumpi\n    /* \"#utility.yul\":1609:1627   */\n  tag_66\n  tag_19\n  jump\t// in\ntag_66:\n    /* \"#utility.yul\":1541:1629   */\ntag_65:\n    /* \"#utility.yul\":1649:1659   */\n  dup1\n    /* \"#utility.yul\":1645:1647   */\n  0x40\n    /* \"#utility.yul\":1638:1660   */\n  mstore\n    /* \"#utility.yul\":1428:1666   */\n  pop\n    /* \"#utility.yul\":1385:1666   */\n  pop\n  pop\n  jump\t// out\n    /* \"#utility.yul\":1672:1801   */\ntag_21:\n    /* \"#utility.yul\":1706:1712   */\n  0x00\n    /* \"#utility.yul\":1733:1753   */\n  tag_68\n  tag_9\n  jump\t// in\ntag_68:\n    /* \"#utility.yul\":1723:1753   */\n  swap1\n  pop\n    /* \"#utility.yul\":1762:1795   */\n  tag_69\n    /* \"#utility.yul\":1790:1794   */\n  dup3\n    /* \"#utility.yul\":1782:1788   */\n  dup3\n    /* \"#utility.yul\":1762:1795   */\n  tag_20\n  jump\t// in\ntag_69:\n    /* \"#utility.yul\":1672:1801   */\n  swap2\n  swap1\n  pop\n  jump\t// out\n    /* \"#utility.yul\":1807:2115   */\ntag_22:\n    /* \"#utility.yul\":1869:1873   */\n  0x00\n    /* \"#utility.yul\":1959:1977   */\n  0xffffffffffffffff\n    /* \"#utility.yul\":1951:1957   */\n  dup3\n    /* \"#utility.yul\":1948:1978   */\n  gt\n    /* \"#utility.yul\":1945:2001   */\n  iszero\n  tag_71\n  jumpi\n    /* \"#utility.yul\":1981:1999   */\n  tag_72\n  tag_19\n  jump\t// in\ntag_72:\n    /* \"#utility.yul\":1945:2001   */\ntag_71:\n    /* \"#utility.yul\":2019:2048   */\n  tag_73\n    /* \"#utility.yul\":2041:2047   */\n  dup3\n    /* \"#utility.yul\":2019:2048   */\n  tag_18\n  jump\t// in\ntag_73:\n    /* \"#utility.yul\":2011:2048   */\n  swap1\n  pop\n    /* \"#utility.yul\":2103:2107   */\n  0x20\n    /* \"#utility.yul\":2097:2101   */\n  dup2\n    /* \"#utility.yul\":2093:2108   */\n  add\n    /* \"#utility.yul\":2085:2108   */\n  swap1\n  pop\n    /* \"#utility.yul\":1807:2115   */\n  swap2\n  swap1\n  pop\n  jump\t// out\n    /* \"#utility.yul\":2121:2260   */\ntag_23:\n    /* \"#utility.yul\":2210:2216   */\n  dup3\n    /* \"#utility.yul\":2205:2208   */\n  dup2\n    /* \"#utility.yul\":2200:2203   */\n  dup4\n    /* \"#utility.yul\":2194:2217   */\n  mcopy\n    /* \"#utility.yul\":2251:2252   */\n  0x00\n    /* \"#utility.yul\":2242:2248   */\n  dup4\n    /* \"#utility.yul\":2237:2240   */\n  dup4\n    /* \"#utility.yul\":2233:2249   */\n  add\n    /* \"#utility.yul\":2226:2253   */\n  mstore\n    /* \"#utility.yul\":2121:2260   */\n  pop\n  pop\n  pop\n  jump\t// out\n    /* \"#utility.yul\":2266:2700   */\ntag_24:\n    /* \"#utility.yul\":2355:2360   */\n  0x00\n    /* \"#utility.yul\":2380:2446   */\n  tag_76\n    /* \"#utility.yul\":2396:2445   */\n  tag_77\n    /* \"#utility.yul\":2438:2444   */\n  dup5\n    /* \"#utility.yul\":2396:2445   */\n  tag_22\n  jump\t// in\ntag_77:\n    /* \"#utility.yul\":2380:2446   */\n  tag_21\n  jump\t// in\ntag_76:\n    /* \"#utility.yul\":2371:2446   */\n  swap1\n  pop\n    /* \"#utility.yul\":2469:2475   */\n  dup3\n    /* \"#utility.yul\":2462:2467   */\n  dup2\n    /* \"#utility.yul\":2455:2476   */\n  mstore\n    /* \"#utility.yul\":2507:2511   */\n  0x20\n    /* \"#utility.yul\":2500:2505   */\n  dup2\n    /* \"#utility.yul\":2496:2512   */\n  add\n    /* \"#utility.yul\":2545:2548   */\n  dup5\n    /* \"#utility.yul\":2536:2542   */\n  dup5\n    /* \"#utility.yul\":2531:2534   */\n  dup5\n    /* \"#utility.yul\":2527:2543   */\n  add\n    /* \"#utility.yul\":2524:2549   */\n  gt\n    /* \"#utility.yul\":2521:2633   */\n  iszero\n  tag_78\n  jumpi\n    /* \"#utility.yul\":2552:2631   */\n  tag_79\n  tag_17\n  jump\t// in\ntag_79:\n    /* \"#utility.yul\":2521:2633   */\ntag_78:\n    /* \"#utility.yul\":2642:2694   */\n  tag_80\n    /* \"#utility.yul\":2687:2693   */\n  dup5\n    /* \"#utility.yul\":2682:2685   */\n  dup3\n    /* \"#utility.yul\":2677:2680   */\n  dup6\n    /* \"#utility.yul\":2642:2694   */\n  tag_23\n  jump\t// in\ntag_80:\n    /* \"#utility.yul\":2361:2700   */\n  pop\n    /* \"#utility.yul\":2266:2700   */\n  swap4\n  swap3\n  pop\n  pop\n  pop\n  jump\t// out\n    /* \"#utility.yul\":2720:3075   */\ntag_25:\n    /* \"#utility.yul\":2787:2792   */\n  0x00\n    /* \"#utility.yul\":2836:2839   */\n  dup3\n    /* \"#utility.yul\":2829:2833   */\n  0x1f\n    /* \"#utility.yul\":2821:2827   */\n  dup4\n    /* \"#utility.yul\":2817:2834   */\n  add\n    /* \"#utility.yul\":2813:2840   */\n  slt\n    /* \"#utility.yul\":2803:2925   */\n  tag_82\n  jumpi\n    /* \"#utility.yul\":2844:2923   */\n  tag_83\n  tag_16\n  jump\t// in\ntag_83:\n    /* \"#utility.yul\":2803:2925   */\ntag_82:\n    /* \"#utility.yul\":2954:2960   */\n  dup2\n    /* \"#utility.yul\":2948:2961   */\n  mload\n    /* \"#utility.yul\":2979:3069   */\n  tag_84\n    /* \"#utility.yul\":3065:3068   */\n  dup5\n    /* \"#utility.yul\":3057:3063   */\n  dup3\n    /* \"#utility.yul\":3050:3054   */\n  0x20\n    /* \"#utility.yul\":3042:3048   */\n  dup7\n    /* \"#utility.yul\":3038:3055   */\n  add\n    /* \"#utility.yul\":2979:3069   */\n  tag_24\n  jump\t// in\ntag_84:\n    /* \"#utility.yul\":2970:3069   */\n  swap2\n  pop\n    /* \"#utility.yul\":2793:3075   */\n  pop\n    /* \"#utility.yul\":2720:3075   */\n  swap3\n  swap2\n  pop\n  pop\n  jump\t// out\n    /* \"#utility.yul\":3081:3158   */\ntag_26:\n    /* \"#utility.yul\":3118:3125   */\n  0x00\n    /* \"#utility.yul\":3147:3152   */\n  dup2\n    /* \"#utility.yul\":3136:3152   */\n  swap1\n  pop\n    /* \"#utility.yul\":3081:3158   */\n  swap2\n  swap1\n  pop\n  jump\t// out\n    /* \"#utility.yul\":3164:3286   */\ntag_27:\n    /* \"#utility.yul\":3237:3261   */\n  tag_87\n    /* \"#utility.yul\":3255:3260   */\n  dup2\n    /* \"#utility.yul\":3237:3261   */\n  tag_26\n  jump\t// in\ntag_87:\n    /* \"#utility.yul\":3230:3235   */\n  dup2\n    /* \"#utility.yul\":3227:3262   */\n  eq\n    /* \"#utility.yul\":3217:3280   */\n  tag_88\n  jumpi\n    /* \"#utility.yul\":3276:3277   */\n  0x00\n    /* \"#utility.yul\":3273:3274   */\n  dup1\n    /* \"#utility.yul\":3266:3278   */\n  revert\n    /* \"#utility.yul\":3217:3280   */\ntag_88:\n    /* \"#utility.yul\":3164:3286   */\n  pop\n  jump\t// out\n    /* \"#utility.yul\":3292:3435   */\ntag_28:\n    /* \"#utility.yul\":3349:3354   */\n  0x00\n    /* \"#utility.yul\":3380:3386   */\n  dup2\n    /* \"#utility.yul\":3374:3387   */\n  mload\n    /* \"#utility.yul\":3365:3387   */\n  swap1\n  pop\n    /* \"#utility.yul\":3396:3429   */\n  tag_90\n    /* \"#utility.yul\":3423:3428   */\n  dup2\n    /* \"#utility.yul\":3396:3429   */\n  tag_27\n  jump\t// in\ntag_90:\n    /* \"#utility.yul\":3292:3435   */\n  swap3\n  swap2\n  pop\n  pop\n  jump\t// out\n    /* \"#utility.yul\":3441:4434   */\ntag_3:\n    /* \"#utility.yul\":3548:3554   */\n  0x00\n    /* \"#utility.yul\":3556:3562   */\n  dup1\n    /* \"#utility.yul\":3564:3570   */\n  0x00\n    /* \"#utility.yul\":3572:3578   */\n  dup1\n    /* \"#utility.yul\":3621:3624   */\n  0x80\n    /* \"#utility.yul\":3609:3618   */\n  dup6\n    /* \"#utility.yul\":3600:3607   */\n  dup8\n    /* \"#utility.yul\":3596:3619   */\n  sub\n    /* \"#utility.yul\":3592:3625   */\n  slt\n    /* \"#utility.yul\":3589:3709   */\n  iszero\n  tag_92\n  jumpi\n    /* \"#utility.yul\":3628:3707   */\n  tag_93\n  tag_10\n  jump\t// in\ntag_93:\n    /* \"#utility.yul\":3589:3709   */\ntag_92:\n    /* \"#utility.yul\":3748:3749   */\n  0x00\n    /* \"#utility.yul\":3773:3837   */\n  tag_94\n    /* \"#utility.yul\":3829:3836   */\n  dup8\n    /* \"#utility.yul\":3820:3826   */\n  dup3\n    /* \"#utility.yul\":3809:3818   */\n  dup9\n    /* \"#utility.yul\":3805:3827   */\n  add\n    /* \"#utility.yul\":3773:3837   */\n  tag_15\n  jump\t// in\ntag_94:\n    /* \"#utility.yul\":3763:3837   */\n  swap5\n  pop\n    /* \"#utility.yul\":3719:3847   */\n  pop\n    /* \"#utility.yul\":3907:3909   */\n  0x20\n    /* \"#utility.yul\":3896:3905   */\n  dup6\n    /* \"#utility.yul\":3892:3910   */\n  add\n    /* \"#utility.yul\":3886:3911   */\n  mload\n    /* \"#utility.yul\":3938:3956   */\n  0xffffffffffffffff\n    /* \"#utility.yul\":3930:3936   */\n  dup2\n    /* \"#utility.yul\":3927:3957   */\n  gt\n    /* \"#utility.yul\":3924:4041   */\n  iszero\n  tag_95\n  jumpi\n    /* \"#utility.yul\":3960:4039   */\n  tag_96\n  tag_11\n  jump\t// in\ntag_96:\n    /* \"#utility.yul\":3924:4041   */\ntag_95:\n    /* \"#utility.yul\":4065:4139   */\n  tag_97\n    /* \"#utility.yul\":4131:4138   */\n  dup8\n    /* \"#utility.yul\":4122:4128   */\n  dup3\n    /* \"#utility.yul\":4111:4120   */\n  dup9\n    /* \"#utility.yul\":4107:4129   */\n  add\n    /* \"#utility.yul\":4065:4139   */\n  tag_25\n  jump\t// in\ntag_97:\n    /* \"#utility.yul\":4055:4139   */\n  swap4\n  pop\n    /* \"#utility.yul\":3857:4149   */\n  pop\n    /* \"#utility.yul\":4188:4190   */\n  0x40\n    /* \"#utility.yul\":4214:4278   */\n  tag_98\n    /* \"#utility.yul\":4270:4277   */\n  dup8\n    /* \"#utility.yul\":4261:4267   */\n  dup3\n    /* \"#utility.yul\":4250:4259   */\n  dup9\n    /* \"#utility.yul\":4246:4268   */\n  add\n    /* \"#utility.yul\":4214:4278   */\n  tag_28\n  jump\t// in\ntag_98:\n    /* \"#utility.yul\":4204:4278   */\n  swap3\n  pop\n    /* \"#utility.yul\":4159:4288   */\n  pop\n    /* \"#utility.yul\":4327:4329   */\n  0x60\n    /* \"#utility.yul\":4353:4417   */\n  tag_99\n    /* \"#utility.yul\":4409:4416   */\n  dup8\n    /* \"#utility.yul\":4400:4406   */\n  dup3\n    /* \"#utility.yul\":4389:4398   */\n  dup9\n    /* \"#utility.yul\":4385:4407   */\n  add\n    /* \"#utility.yul\":4353:4417   */\n  tag_28\n  jump\t// in\ntag_99:\n    /* \"#utility.yul\":4343:4417   */\n  swap2\n  pop\n    /* \"#utility.yul\":4298:4427   */\n  pop\n    /* \"#utility.yul\":3441:4434   */\n  swap3\n  swap6\n  swap2\n  swap5\n  pop\n  swap3\n  pop\n  jump\t// out\n    /* \"#utility.yul\":4440:4539   */\ntag_29:\n    /* \"#utility.yul\":4492:4498   */\n  0x00\n    /* \"#utility.yul\":4526:4531   */\n  dup2\n    /* \"#utility.yul\":4520:4532   */\n  mload\n    /* \"#utility.yul\":4510:4532   */\n  swap1\n  pop\n    /* \"#utility.yul\":4440:4539   */\n  swap2\n  swap1\n  pop\n  jump\t// out\n    /* \"#utility.yul\":4545:4725   */\ntag_30:\n    /* \"#utility.yul\":4593:4670   */\n  0x4e487b7100000000000000000000000000000000000000000000000000000000\n    /* \"#utility.yul\":4590:4591   */\n  0x00\n    /* \"#utility.yul\":4583:4671   */\n  mstore\n    /* \"#utility.yul\":4690:4694   */\n  0x22\n    /* \"#utility.yul\":4687:4688   */\n  0x04\n    /* \"#utility.yul\":4680:4695   */\n  mstore\n    /* \"#utility.yul\":4714:4718   */\n  0x24\n    /* \"#utility.yul\":4711:4712   */\n  0x00\n    /* \"#utility.yul\":4704:4719   */\n  revert\n    /* \"#utility.yul\":4731:5051   */\ntag_31:\n    /* \"#utility.yul\":4775:4781   */\n  0x00\n    /* \"#utility.yul\":4812:4813   */\n  0x02\n    /* \"#utility.yul\":4806:4810   */\n  dup3\n    /* \"#utility.yul\":4802:4814   */\n  div\n    /* \"#utility.yul\":4792:4814   */\n  swap1\n  pop\n    /* \"#utility.yul\":4859:4860   */\n  0x01\n    /* \"#utility.yul\":4853:4857   */\n  dup3\n    /* \"#utility.yul\":4849:4861   */\n  and\n    /* \"#utility.yul\":4880:4898   */\n  dup1\n    /* \"#utility.yul\":4870:4951   */\n  tag_103\n  jumpi\n    /* \"#utility.yul\":4936:4940   */\n  0x7f\n    /* \"#utility.yul\":4928:4934   */\n  dup3\n    /* \"#utility.yul\":4924:4941   */\n  and\n    /* \"#utility.yul\":4914:4941   */\n  swap2\n  pop\n    /* \"#utility.yul\":4870:4951   */\ntag_103:\n    /* \"#utility.yul\":4998:5000   */\n  0x20\n    /* \"#utility.yul\":4990:4996   */\n  dup3\n    /* \"#utility.yul\":4987:5001   */\n  lt\n    /* \"#utility.yul\":4967:4985   */\n  dup2\n    /* \"#utility.yul\":4964:5002   */\n  sub\n    /* \"#utility.yul\":4961:5045   */\n  tag_104\n  jumpi\n    /* \"#utility.yul\":5017:5035   */\n  tag_105\n  tag_30\n  jump\t// in\ntag_105:\n    /* \"#utility.yul\":4961:5045   */\ntag_104:\n    /* \"#utility.yul\":4782:5051   */\n  pop\n    /* \"#utility.yul\":4731:5051   */\n  swap2\n  swap1\n  pop\n  jump\t// out\n    /* \"#utility.yul\":5057:5198   */\ntag_32:\n    /* \"#utility.yul\":5106:5110   */\n  0x00\n    /* \"#utility.yul\":5129:5132   */\n  dup2\n    /* \"#utility.yul\":5121:5132   */\n  swap1\n  pop\n    /* \"#utility.yul\":5152:5155   */\n  dup2\n    /* \"#utility.yul\":5149:5150   */\n  0x00\n    /* \"#utility.yul\":5142:5156   */\n  mstore\n    /* \"#utility.yul\":5186:5190   */\n  0x20\n    /* \"#utility.yul\":5183:5184   */\n  0x00\n    /* \"#utility.yul\":5173:5191   */\n  keccak256\n    /* \"#utility.yul\":5165:5191   */\n  swap1\n  pop\n    /* \"#utility.yul\":5057:5198   */\n  swap2\n  swap1\n  pop\n  jump\t// out\n    /* \"#utility.yul\":5204:5297   */\ntag_33:\n    /* \"#utility.yul\":5241:5247   */\n  0x00\n    /* \"#utility.yul\":5288:5290   */\n  0x20\n    /* \"#utility.yul\":5283:5285   */\n  0x1f\n    /* \"#utility.yul\":5276:5281   */\n  dup4\n    /* \"#utility.yul\":5272:5286   */\n  add\n    /* \"#utility.yul\":5268:5291   */\n  div\n    /* \"#utility.yul\":5258:5291   */\n  swap1\n  pop\n    /* \"#utility.yul\":5204:5297   */\n  swap2\n  swap1\n  pop\n  jump\t// out\n    /* \"#utility.yul\":5303:5410   */\ntag_34:\n    /* \"#utility.yul\":5347:5355   */\n  0x00\n    /* \"#utility.yul\":5397:5402   */\n  dup3\n    /* \"#utility.yul\":5391:5395   */\n  dup3\n    /* \"#utility.yul\":5387:5403   */\n  shl\n    /* \"#utility.yul\":5366:5403   */\n  swap1\n  pop\n    /* \"#utility.yul\":5303:5410   */\n  swap3\n  swap2\n  pop\n  pop\n  jump\t// out\n    /* \"#utility.yul\":5416:5809   */\ntag_35:\n    /* \"#utility.yul\":5485:5491   */\n  0x00\n    /* \"#utility.yul\":5535:5536   */\n  0x08\n    /* \"#utility.yul\":5523:5533   */\n  dup4\n    /* \"#utility.yul\":5519:5537   */\n  mul\n    /* \"#utility.yul\":5558:5655   */\n  tag_110\n    /* \"#utility.yul\":5588:5654   */\n  0xffffffffffffffffffffffffffffffffffffffffffffffffffffffffffffffff\n    /* \"#utility.yul\":5577:5586   */\n  dup3\n    /* \"#utility.yul\":5558:5655   */\n  tag_34\n  jump\t// in\ntag_110:\n    /* \"#utility.yul\":5676:5715   */\n  tag_111\n    /* \"#utility.yul\":5706:5714   */\n  dup7\n    /* \"#utility.yul\":5695:5704   */\n  dup4\n    /* \"#utility.yul\":5676:5715   */\n  tag_34\n  jump\t// in\ntag_111:\n    /* \"#utility.yul\":5664:5715   */\n  swap6\n  pop\n    /* \"#utility.yul\":5748:5752   */\n  dup1\n    /* \"#utility.yul\":5744:5753   */\n  not\n    /* \"#utility.yul\":5737:5742   */\n  dup5\n    /* \"#utility.yul\":5733:5754   */\n  and\n    /* \"#utility.yul\":5724:5754   */\n  swap4\n  pop\n    /* \"#utility.yul\":5797:5801   */\n  dup1\n    /* \"#utility.yul\":5787:5795   */\n  dup7\n    /* \"#utility.yul\":5783:5802   */\n  and\n    /* \"#utility.yul\":5776:5781   */\n  dup5\n    /* \"#utility.yul\":5773:5803   */\n  or\n    /* \"#utility.yul\":5763:5803   */\n  swap3\n  pop\n    /* \"#utility.yul\":5492:5809   */\n  pop\n  pop\n    /* \"#utility.yul\":5416:5809   */\n  swap4\n  swap3\n  pop\n  pop\n  pop\n  jump\t// out\n    /* \"#utility.yul\":5815:5875   */\ntag_36:\n    /* \"#utility.yul\":5843:5846   */\n  0x00\n    /* \"#utility.yul\":5864:5869   */\n  dup2\n    /* \"#utility.yul\":5857:5869   */\n  swap1\n  pop\n    /* \"#utility.yul\":5815:5875   */\n  swap2\n  swap1\n  pop\n  jump\t// out\n    /* \"#utility.yul\":5881:6023   */\ntag_37:\n    /* \"#utility.yul\":5931:5940   */\n  0x00\n    /* \"#utility.yul\":5964:6017   */\n  tag_114\n    /* \"#utility.yul\":5982:6016   */\n  tag_115\n    /* \"#utility.yul\":5991:6015   */\n  tag_116\n    /* \"#utility.yul\":6009:6014   */\n  dup5\n    /* \"#utility.yul\":5991:6015   */\n  tag_26\n  jump\t// in\ntag_116:\n    /* \"#utility.yul\":5982:6016   */\n  tag_36\n  jump\t// in\ntag_115:\n    /* \"#utility.yul\":5964:6017   */\n  tag_26\n  jump\t// in\ntag_114:\n    /* \"#utility.yul\":5951:6017   */\n  swap1\n  pop\n    /* \"#utility.yul\":5881:6023   */\n  swap2\n  swap1\n  pop\n  jump\t// out\n    /* \"#utility.yul\":6029:6104   */\ntag_38:\n    /* \"#utility.yul\":6072:6075   */\n  0x00\n    /* \"#utility.yul\":6093:6098   */\n  dup2\n    /* \"#utility.yul\":6086:6098   */\n  swap1\n  pop\n    /* \"#utility.yul\":6029:6104   */\n  swap2\n  swap1\n  pop\n  jump\t// out\n    /* \"#utility.yul\":6110:6379   */\ntag_39:\n    /* \"#utility.yul\":6220:6259   */\n  tag_119\n    /* \"#utility.yul\":6251:6258   */\n  dup4\n    /* \"#utility.yul\":6220:6259   */\n  tag_37\n  jump\t// in\ntag_119:\n    /* \"#utility.yul\":6281:6372   */\n  tag_120\n    /* \"#utility.yul\":6330:6371   */\n  tag_121\n    /* \"#utility.yul\":6354:6370   */\n  dup3\n    /* \"#utility.yul\":6330:6371   */\n  tag_38\n  jump\t// in\ntag_121:\n    /* \"#utility.yul\":6322:6328   */\n  dup5\n    /* \"#utility.yul\":6315:6319   */\n  dup5\n    /* \"#utility.yul\":6309:6320   */\n  sload\n    /* \"#utility.yul\":6281:6372   */\n  tag_35\n  jump\t// in\ntag_120:\n    /* \"#utility.yul\":6275:6279   */\n  dup3\n    /* \"#utility.yul\":6268:6373   */\n  sstore\n    /* \"#utility.yul\":6186:6379   */\n  pop\n    /* \"#utility.yul\":6110:6379   */\n  pop\n  pop\n  pop\n  jump\t// out\n    /* \"#utility.yul\":6385:6458   */\ntag_40:\n    /* \"#utility.yul\":6430:6433   */\n  0x00\n    /* \"#utility.yul\":6385:6458   */\n  swap1\n  jump\t// out\n    /* \"#utility.yul\":6464:6653   */\ntag_41:\n    /* \"#utility.yul\":6541:6573   */\n  tag_124\n  tag_40\n  jump\t// in\ntag_124:\n    /* \"#utility.yul\":6582:6647   */\n  tag_125\n    /* \"#utility.yul\":6640:6646   */\n  dup2\n    /* \"#utility.yul\":6632:6638   */\n  dup5\n    /* \"#utility.yul\":6626:6630   */\n  dup5\n    /* \"#utility.yul\":6582:6647   */\n  tag_39\n  jump\t// in\ntag_125:\n    /* \"#utility.yul\":6517:6653   */\n  pop\n    /* \"#utility.yul\":6464:6653   */\n  pop\n  pop\n  jump\t// out\n    /* \"#utility.yul\":6659:6845   */\ntag_42:\n    /* \"#utility.yul\":6719:6839   */\ntag_127:\n    /* \"#utility.yul\":6736:6739   */\n  dup2\n    /* \"#utility.yul\":6729:6734   */\n  dup2\n    /* \"#utility.yul\":6726:6740   */\n  lt\n    /* \"#utility.yul\":6719:6839   */\n  iszero\n  tag_129\n  jumpi\n    /* \"#utility.yul\":6790:6829   */\n  tag_130\n    /* \"#utility.yul\":6827:6828   */\n  0x00\n    /* \"#utility.yul\":6820:6825   */\n  dup3\n    /* \"#utility.yul\":6790:6829   */\n  tag_41\n  jump\t// in\ntag_130:\n    /* \"#utility.yul\":6763:6764   */\n  0x01\n    /* \"#utility.yul\":6756:6761   */\n  dup2\n    /* \"#utility.yul\":6752:6765   */\n  add\n    /* \"#utility.yul\":6743:6765   */\n  swap1\n  pop\n    /* \"#utility.yul\":6719:6839   */\n  jump(tag_127)\ntag_129:\n    /* \"#utility.yul\":6659:6845   */\n  pop\n  pop\n  jump\t// out\n    /* \"#utility.yul\":6851:7394   */\ntag_43:\n    /* \"#utility.yul\":6952:6954   */\n  0x1f\n    /* \"#utility.yul\":6947:6950   */\n  dup3\n    /* \"#utility.yul\":6944:6955   */\n  gt\n    /* \"#utility.yul\":6941:7387   */\n  iszero\n  tag_132\n  jumpi\n    /* \"#utility.yul\":6986:7024   */\n  tag_133\n    /* \"#utility.yul\":7018:7023   */\n  dup2\n    /* \"#utility.yul\":6986:7024   */\n  tag_32\n  jump\t// in\ntag_133:\n    /* \"#utility.yul\":7070:7099   */\n  tag_134\n    /* \"#utility.yul\":7088:7098   */\n  dup5\n    /* \"#utility.yul\":7070:7099   */\n  tag_33\n  jump\t// in\ntag_134:\n    /* \"#utility.yul\":7060:7068   */\n  dup2\n    /* \"#utility.yul\":7056:7100   */\n  add\n    /* \"#utility.yul\":7253:7255   */\n  0x20\n    /* \"#utility.yul\":7241:7251   */\n  dup6\n    /* \"#utility.yul\":7238:7256   */\n  lt\n    /* \"#utility.yul\":7235:7284   */\n  iszero\n  tag_135\n  jumpi\n    /* \"#utility.yul\":7274:7282   */\n  dup2\n    /* \"#utility.yul\":7259:7282   */\n  swap1\n  pop\n    /* \"#utility.yul\":7235:7284   */\ntag_135:\n    /* \"#utility.yul\":7297:7377   */\n  tag_136\n    /* \"#utility.yul\":7353:7375   */\n  tag_137\n    /* \"#utility.yul\":7371:7374   */\n  dup6\n    /* \"#utility.yul\":7353:7375   */\n  tag_33\n  jump\t// in\ntag_137:\n    /* \"#utility.yul\":7343:7351   */\n  dup4\n    /* \"#utility.yul\":7339:7376   */\n  add\n    /* \"#utility.yul\":7326:7337   */\n  dup3\n    /* \"#utility.yul\":7297:7377   */\n  tag_42\n  jump\t// in\ntag_136:\n    /* \"#utility.yul\":6956:7387   */\n  pop\n  pop\n    /* \"#utility.yul\":6941:7387   */\ntag_132:\n    /* \"#utility.yul\":6851:7394   */\n  pop\n  pop\n  pop\n  jump\t// out\n    /* \"#utility.yul\":7400:7517   */\ntag_44:\n    /* \"#utility.yul\":7454:7462   */\n  0x00\n    /* \"#utility.yul\":7504:7509   */\n  dup3\n    /* \"#utility.yul\":7498:7502   */\n  dup3\n    /* \"#utility.yul\":7494:7510   */\n  shr\n    /* \"#utility.yul\":7473:7510   */\n  swap1\n  pop\n    /* \"#utility.yul\":7400:7517   */\n  swap3\n  swap2\n  pop\n  pop\n  jump\t// out\n    /* \"#utility.yul\":7523:7692   */\ntag_45:\n    /* \"#utility.yul\":7567:7573   */\n  0x00\n    /* \"#utility.yul\":7600:7651   */\n  tag_140\n    /* \"#utility.yul\":7648:7649   */\n  0x00\n    /* \"#utility.yul\":7644:7650   */\n  not\n    /* \"#utility.yul\":7636:7641   */\n  dup5\n    /* \"#utility.yul\":7633:7634   */\n  0x08\n    /* \"#utility.yul\":7629:7642   */\n  mul\n    /* \"#utility.yul\":7600:7651   */\n  tag_44\n  jump\t// in\ntag_140:\n    /* \"#utility.yul\":7596:7652   */\n  not\n    /* \"#utility.yul\":7681:7685   */\n  dup1\n    /* \"#utility.yul\":7675:7679   */\n  dup4\n    /* \"#utility.yul\":7671:7686   */\n  and\n    /* \"#utility.yul\":7661:7686   */\n  swap2\n  pop\n    /* \"#utility.yul\":7574:7692   */\n  pop\n    /* \"#utility.yul\":7523:7692   */\n  swap3\n  swap2\n  pop\n  pop\n  jump\t// out\n    /* \"#utility.yul\":7697:7992   */\ntag_46:\n    /* \"#utility.yul\":7773:7777   */\n  0x00\n    /* \"#utility.yul\":7919:7948   */\n  tag_142\n    /* \"#utility.yul\":7944:7947   */\n  dup4\n    /* \"#utility.yul\":7938:7942   */\n  dup4\n    /* \"#utility.yul\":7919:7948   */\n  tag_45\n  jump\t// in\ntag_142:\n    /* \"#utility.yul\":7911:7948   */\n  swap2\n  pop\n    /* \"#utility.yul\":7981:7984   */\n  dup3\n    /* \"#utility.yul\":7978:7979   */\n  0x02\n    /* \"#utility.yul\":7974:7985   */\n  mul\n    /* \"#utility.yul\":7968:7972   */\n  dup3\n    /* \"#utility.yul\":7965:7986   */\n  or\n    /* \"#utility.yul\":7957:7986   */\n  swap1\n  pop\n    /* \"#utility.yul\":7697:7992   */\n  swap3\n  swap2\n  pop\n  pop\n  jump\t// out\n    /* \"#utility.yul\":7997:9392   */\ntag_7:\n    /* \"#utility.yul\":8114:8151   */\n  tag_144\n    /* \"#utility.yul\":8147:8150   */\n  dup3\n    /* \"#utility.yul\":8114:8151   */\n  tag_29\n  jump\t// in\ntag_144:\n    /* \"#utility.yul\":8216:8234   */\n  0xffffffffffffffff\n    /* \"#utility.yul\":8208:8214   */\n  dup2\n    /* \"#utility.yul\":8205:8235   */\n  gt\n    /* \"#utility.yul\":8202:8258   */\n  iszero\n  tag_145\n  jumpi\n    /* \"#utility.yul\":8238:8256   */\n  tag_146\n  tag_19\n  jump\t// in\ntag_146:\n    /* \"#utility.yul\":8202:8258   */\ntag_145:\n    /* \"#utility.yul\":8282:8320   */\n  tag_147\n    /* \"#utility.yul\":8314:8318   */\n  dup3\n    /* \"#utility.yul\":8308:8319   */\n  sload\n    /* \"#utility.yul\":8282:8320   */\n  tag_31\n  jump\t// in\ntag_147:\n    /* \"#utility.yul\":8367:8434   */\n  tag_148\n    /* \"#utility.yul\":8427:8433   */\n  dup3\n    /* \"#utility.yul\":8419:8425   */\n  dup3\n    /* \"#utility.yul\":8413:8417   */\n  dup6\n    /* \"#utility.yul\":8367:8434   */\n  tag_43\n  jump\t// in\ntag_148:\n    /* \"#utility.yul\":8461:8462   */\n  0x00\n    /* \"#utility.yul\":8485:8489   */\n  0x20\n    /* \"#utility.yul\":8472:8489   */\n  swap1\n  pop\n    /* \"#utility.yul\":8517:8519   */\n  0x1f\n    /* \"#utility.yul\":8509:8515   */\n  dup4\n    /* \"#utility.yul\":8506:8520   */\n  gt\n    /* \"#utility.yul\":8534:8535   */\n  0x01\n    /* \"#utility.yul\":8529:9147   */\n  dup2\n  eq\n  tag_150\n  jumpi\n    /* \"#utility.yul\":9191:9192   */\n  0x00\n    /* \"#utility.yul\":9208:9214   */\n  dup5\n    /* \"#utility.yul\":9205:9282   */\n  iszero\n  tag_151\n  jumpi\n    /* \"#utility.yul\":9257:9266   */\n  dup3\n    /* \"#utility.yul\":9252:9255   */\n  dup8\n    /* \"#utility.yul\":9248:9267   */\n  add\n    /* \"#utility.yul\":9242:9268   */\n  mload\n    /* \"#utility.yul\":9233:9268   */\n  swap1\n  pop\n    /* \"#utility.yul\":9205:9282   */\ntag_151:\n    /* \"#utility.yul\":9308:9375   */\n  tag_152\n    /* \"#utility.yul\":9368:9374   */\n  dup6\n    /* \"#utility.yul\":9361:9366   */\n  dup3\n    /* \"#utility.yul\":9308:9375   */\n  tag_46\n  jump\t// in\ntag_152:\n    /* \"#utility.yul\":9302:9306   */\n  dup7\n    /* \"#utility.yul\":9295:9376   */\n  sstore\n    /* \"#utility.yul\":9164:9386   */\n  pop\n    /* \"#utility.yul\":8499:9386   */\n  jump(tag_149)\n    /* \"#utility.yul\":8529:9147   */\ntag_150:\n    /* \"#utility.yul\":8581:8585   */\n  0x1f\n    /* \"#utility.yul\":8577:8586   */\n  not\n    /* \"#utility.yul\":8569:8575   */\n  dup5\n    /* \"#utility.yul\":8565:8587   */\n  and\n    /* \"#utility.yul\":8615:8652   */\n  tag_153\n    /* \"#utility.yul\":8647:8651   */\n  dup7\n    /* \"#utility.yul\":8615:8652   */\n  tag_32\n  jump\t// in\ntag_153:\n    /* \"#utility.yul\":8674:8675   */\n  0x00\n    /* \"#utility.yul\":8688:8896   */\ntag_154:\n    /* \"#utility.yul\":8702:8709   */\n  dup3\n    /* \"#utility.yul\":8699:8700   */\n  dup2\n    /* \"#utility.yul\":8696:8710   */\n  lt\n    /* \"#utility.yul\":8688:8896   */\n  iszero\n  tag_156\n  jumpi\n    /* \"#utility.yul\":8781:8790   */\n  dup5\n    /* \"#utility.yul\":8776:8779   */\n  dup10\n    /* \"#utility.yul\":8772:8791   */\n  add\n    /* \"#utility.yul\":8766:8792   */\n  mload\n    /* \"#utility.yul\":8758:8764   */\n  dup3\n    /* \"#utility.yul\":8751:8793   */\n  sstore\n    /* \"#utility.yul\":8832:8833   */\n  0x01\n    /* \"#utility.yul\":8824:8830   */\n  dup3\n    /* \"#utility.yul\":8820:8834   */\n  add\n    /* \"#utility.yul\":8810:8834   */\n  swap2\n  pop\n    /* \"#utility.yul\":8879:8881   */\n  0x20\n    /* \"#utility.yul\":8868:8877   */\n  dup6\n    /* \"#utility.yul\":8864:8882   */\n  add\n    /* \"#utility.yul\":8851:8882   */\n  swap5\n  pop\n    /* \"#utility.yul\":8725:8729   */\n  0x20\n    /* \"#utility.yul\":8722:8723   */\n  dup2\n    /* \"#utility.yul\":8718:8730   */\n  add\n    /* \"#utility.yul\":8713:8730   */\n  swap1\n  pop\n    /* \"#utility.yul\":8688:8896   */\n  jump(tag_154)\ntag_156:\n    /* \"#utility.yul\":8924:8930   */\n  dup7\n    /* \"#utility.yul\":8915:8922   */\n  dup4\n    /* \"#utility.yul\":8912:8931   */\n  lt\n    /* \"#utility.yul\":8909:9088   */\n  iszero\n  tag_157\n  jumpi\n    /* \"#utility.yul\":8982:8991   */\n  dup5\n    /* \"#utility.yul\":8977:8980   */\n  dup10\n    /* \"#utility.yul\":8973:8992   */\n  add\n    /* \"#utility.yul\":8967:8993   */\n  mload\n    /* \"#utility.yul\":9025:9073   */\n  tag_158\n    /* \"#utility.yul\":9067:9071   */\n  0x1f\n    /* \"#utility.yul\":9059:9065   */\n  dup10\n    /* \"#utility.yul\":9055:9072   */\n  and\n    /* \"#utility.yul\":9044:9053   */\n  dup3\n    /* \"#utility.yul\":9025:9073   */\n  tag_45\n  jump\t// in\ntag_158:\n    /* \"#utility.yul\":9017:9023   */\n  dup4\n    /* \"#utility.yul\":9010:9074   */\n  sstore\n    /* \"#utility.yul\":8932:9088   */\n  pop\n    /* \"#utility.yul\":8909:9088   */\ntag_157:\n    /* \"#utility.yul\":9134:9135   */\n  0x01\n    /* \"#utility.yul\":9130:9131   */\n  0x02\n    /* \"#utility.yul\":9122:9128   */\n  dup9\n    /* \"#utility.yul\":9118:9132   */\n  mul\n    /* \"#utility.yul\":9114:9136   */\n  add\n    /* \"#utility.yul\":9108:9112   */\n  dup9\n    /* \"#utility.yul\":9101:9137   */\n  sstore\n    /* \"#utility.yul\":8536:9147   */\n  pop\n  pop\n  pop\n    /* \"#utility.yul\":8499:9386   */\ntag_149:\n  pop\n    /* \"#utility.yul\":8089:9392   */\n  pop\n  pop\n  pop\n    /* \"#utility.yul\":7997:9392   */\n  pop\n  pop\n  jump\t// out\n    /* \"Lottery.sol\":665:1977  contract Lottery {... */\ntag_8:\n  dataSize(sub_0)\n  dup1\n  dataOffset(sub_0)\n  0x00\n  codecopy\n  0x00\n  return\nstop\n\nsub_0: assembly {\n        /* \"Lottery.sol\":665:1977  contract Lottery {... */\n      mstore(0x40, 0x80)\n      jumpi(tag_1, lt(calldatasize, 0x04))\n      shr(0xe0, calldataload(0x00))\n      dup1\n      0x937e09b1\n      gt\n      tag_10\n      jumpi\n      dup1\n      0x937e09b1\n      eq\n      tag_6\n      jumpi\n      dup1\n      0xdfbf53ae\n      eq\n      tag_7\n      jumpi\n      dup1\n      0xe97dcb62\n      eq\n      tag_8\n      jumpi\n      dup1\n      0xf71d96cb\n      eq\n      tag_9\n      jumpi\n      jump(tag_1)\n    tag_10:\n      dup1\n      0x481c6a75\n      eq\n      tag_2\n      jumpi\n      dup1\n      0x565974d3\n      eq\n      tag_3\n      jumpi\n      dup1\n      0x5d495aea\n      eq\n      tag_4\n      jumpi\n      dup1\n      0x8b5b9ccc\n      eq\n      tag_5\n      jumpi\n    tag_1:\n      0x00\n      dup1\n      revert\n        /* \"Lottery.sol\":765:787  address public manager */\n    tag_2:\n      callvalue\n      dup1\n      iszero\n      tag_11\n      jumpi\n      0x00\n      dup1\n      revert\n    tag_11:\n      pop\n      tag_12\n      tag_13\n      jump\t// in\n    tag_12:\n      mload(0x40)\n      tag_14\n      swap2\n      swap1\n      tag_15\n      jump\t// in\n    tag_14:\n      mload(0x40)\n      dup1\n      swap2\n      sub\n      swap1\n      return\n        /* \"Lottery.sol\":891:913  Details public details */\n    tag_3:\n      callvalue\n      dup1\n      iszero\n      tag_16\n      jumpi\n      0x00\n      dup1\n      revert\n    tag_16:\n      pop\n      tag_17\n      tag_18\n      jump\t// in\n    tag_17:\n      mload(0x40)\n      tag_19\n      swap3\n      swap2\n      swap1\n      tag_20\n      jump\t// in\n    tag_19:\n      mload(0x40)\n      dup1\n      swap2\n      sub\n      swap1\n      return\n        /* \"Lottery.sol\":1457:1681  function pickWinner() public restrict {... */\n    tag_4:\n      callvalue\n      dup1\n      iszero\n      tag_21\n      jumpi\n      0x00\n      dup1\n      revert\n    tag_21:\n      pop\n      tag_22\n      tag_23\n      jump\t// in\n    tag_22:\n      stop\n        /* \"Lottery.sol\":1689:1783  function getPlayers() public view returns (address[] memory) {... */\n    tag_5:\n      callvalue\n      dup1\n      iszero\n      tag_24\n      jumpi\n      0x00\n      dup1\n      revert\n    tag_24:\n      pop\n      tag_25\n      tag_26\n      jump\t// in\n    tag_25:\n      mload(0x40)\n      tag_27\n      swap2\n      swap1\n      tag_28\n      jump\t// in\n    tag_27:\n      mload(0x40)\n      dup1\n      swap2\n      sub\n      swap1\n      return\n        /* \"Lottery.sol\":853:884  uint public minimumContribution */\n    tag_6:\n      callvalue\n      dup1\n      iszero\n      tag_29\n      jumpi\n      0x00\n      dup1\n      revert\n    tag_29:\n      pop\n      tag_30\n      tag_31\n      jump\t// in\n    tag_30:\n      mload(0x40)\n      tag_32\n      swap2\n      swap1\n      tag_33\n      jump\t// in\n    tag_32:\n      mload(0x40)\n      dup1\n      swap2\n      sub\n      swap1\n      return\n        /* \"Lottery.sol\":825:846  address public winner */\n    tag_7:\n      callvalue\n      dup1\n      iszero\n      tag_34\n      jumpi\n      0x00\n      dup1\n      revert\n    tag_34:\n      pop\n      tag_35\n      tag_36\n      jump\t// in\n    tag_35:\n      mload(0x40)\n      tag_37\n      swap2\n      swap1\n      tag_15\n      jump\t// in\n    tag_37:\n      mload(0x40)\n      dup1\n      swap2\n      sub\n      swap1\n      return\n        /* \"Lottery.sol\":1206:1292  function enter() public payable minimumPay {... */\n    tag_8:\n      tag_38\n      tag_39\n      jump\t// in\n    tag_38:\n      stop\n        /* \"Lottery.sol\":794:818  address[] public players */\n    tag_9:\n      callvalue\n      dup1\n      iszero\n      tag_40\n      jumpi\n      0x00\n      dup1\n      revert\n    tag_40:\n      pop\n      tag_41\n      0x04\n      dup1\n      calldatasize\n      sub\n      dup2\n      add\n      swap1\n      tag_42\n      swap2\n      swap1\n      tag_43\n      jump\t// in\n    tag_42:\n      tag_44\n      jump\t// in\n    tag_41:\n      mload(0x40)\n      tag_45\n      swap2\n      swap1\n      tag_15\n      jump\t// in\n    tag_45:\n      mload(0x40)\n      dup1\n      swap2\n      sub\n      swap1\n      return\n        /* \"Lottery.sol\":765:787  address public manager */\n    tag_13:\n      0x00\n      dup1\n      sload\n      swap1\n      0x0100\n      exp\n      swap1\n      div\n      0xffffffffffffffffffffffffffffffffffffffff\n      and\n      dup2\n      jump\t// out\n        /* \"Lottery.sol\":891:913  Details public details */\n    tag_18:\n      0x04\n      dup1\n      0x00\n      add\n      dup1\n      sload\n      tag_46\n      swap1\n      tag_47\n      jump\t// in\n    tag_46:\n      dup1\n      0x1f\n      add\n      0x20\n      dup1\n      swap2\n      div\n      mul\n      0x20\n      add\n      mload(0x40)\n      swap1\n      dup2\n      add\n      0x40\n      mstore\n      dup1\n      swap3\n      swap2\n      swap1\n      dup2\n      dup2\n      mstore\n      0x20\n      add\n      dup3\n      dup1\n      sload\n      tag_48\n      swap1\n      tag_47\n      jump\t// in\n    tag_48:\n      dup1\n      iszero\n      tag_49\n      jumpi\n      dup1\n      0x1f\n      lt\n      tag_50\n      jumpi\n      0x0100\n      dup1\n      dup4\n      sload\n      div\n      mul\n      dup4\n      mstore\n      swap2\n      0x20\n      add\n      swap2\n      jump(tag_49)\n    tag_50:\n      dup3\n      add\n      swap2\n      swap1\n      0x00\n      mstore\n      keccak256(0x00, 0x20)\n      swap1\n    tag_51:\n      dup2\n      sload\n      dup2\n      mstore\n      swap1\n      0x01\n      add\n      swap1\n      0x20\n      add\n      dup1\n      dup4\n      gt\n      tag_51\n      jumpi\n      dup3\n      swap1\n      sub\n      0x1f\n      and\n      dup3\n      add\n      swap2\n    tag_49:\n      pop\n      pop\n      pop\n      pop\n      pop\n      swap1\n      dup1\n      0x01\n      add\n      sload\n      swap1\n      pop\n      dup3\n      jump\t// out\n        /* \"Lottery.sol\":1457:1681  function pickWinner() public restrict {... */\n    tag_23:\n        /* \"Lottery.sol\":1844:1851  manager */\n      0x00\n      dup1\n      sload\n      swap1\n      0x0100\n      exp\n      swap1\n      div\n      0xffffffffffffffffffffffffffffffffffffffff\n      and\n        /* \"Lottery.sol\":1830:1851  msg.sender == manager */\n      0xffffffffffffffffffffffffffffffffffffffff\n      and\n        /* \"Lottery.sol\":1830:1840  msg.sender */\n      caller\n        /* \"Lottery.sol\":1830:1851  msg.sender == manager */\n      0xffffffffffffffffffffffffffffffffffffffff\n      and\n      eq\n        /* \"Lottery.sol\":1822:1852  require(msg.sender == manager) */\n      tag_53\n      jumpi\n      0x00\n      dup1\n      revert\n    tag_53:\n        /* \"Lottery.sol\":1506:1516  uint index */\n      0x00\n        /* \"Lottery.sol\":1530:1537  players */\n      0x01\n        /* \"Lottery.sol\":1530:1544  players.length */\n      dup1\n      sload\n      swap1\n      pop\n        /* \"Lottery.sol\":1519:1527  random() */\n      tag_55\n        /* \"Lottery.sol\":1519:1525  random */\n      tag_56\n        /* \"Lottery.sol\":1519:1527  random() */\n      jump\t// in\n    tag_55:\n        /* \"Lottery.sol\":1519:1544  random() % players.length */\n      tag_57\n      swap2\n      swap1\n      tag_58\n      jump\t// in\n    tag_57:\n        /* \"Lottery.sol\":1506:1544  uint index = random() % players.length */\n      swap1\n      pop\n        /* \"Lottery.sol\":1564:1571  players */\n      0x01\n        /* \"Lottery.sol\":1572:1577  index */\n      dup2\n        /* \"Lottery.sol\":1564:1578  players[index] */\n      dup2\n      sload\n      dup2\n      lt\n      tag_59\n      jumpi\n      tag_60\n      tag_61\n      jump\t// in\n    tag_60:\n    tag_59:\n      swap1\n      0x00\n      mstore\n      keccak256(0x00, 0x20)\n      add\n      0x00\n      swap1\n      sload\n      swap1\n      0x0100\n      exp\n      swap1\n      div\n      0xffffffffffffffffffffffffffffffffffffffff\n      and\n        /* \"Lottery.sol\":1555:1561  winner */\n      0x02\n      0x00\n        /* \"Lottery.sol\":1555:1578  winner = players[index] */\n      0x0100\n      exp\n      dup2\n      sload\n      dup2\n      0xffffffffffffffffffffffffffffffffffffffff\n      mul\n      not\n      and\n      swap1\n      dup4\n      0xffffffffffffffffffffffffffffffffffffffff\n      and\n      mul\n      or\n      swap1\n      sstore\n      pop\n        /* \"Lottery.sol\":1597:1603  winner */\n      0x02\n      0x00\n      swap1\n      sload\n      swap1\n      0x0100\n      exp\n      swap1\n      div\n      0xffffffffffffffffffffffffffffffffffffffff\n      and\n        /* \"Lottery.sol\":1589:1613  payable(winner).transfer */\n      0xffffffffffffffffffffffffffffffffffffffff\n      and\n        /* \"Lottery.sol\":1589:1636  payable(winner).transfer(address(this).balance) */\n      0x08fc\n        /* \"Lottery.sol\":1614:1635  address(this).balance */\n      selfbalance\n        /* \"Lottery.sol\":1589:1636  payable(winner).transfer(address(this).balance) */\n      swap1\n      dup2\n      iszero\n      mul\n      swap1\n      mload(0x40)\n      0x00\n      mload(0x40)\n      dup1\n      dup4\n      sub\n      dup2\n      dup6\n      dup9\n      dup9\n      call\n      swap4\n      pop\n      pop\n      pop\n      pop\n      iszero\n      dup1\n      iszero\n      tag_64\n      jumpi\n      returndatasize\n      0x00\n      dup1\n      returndatacopy\n      revert(0x00, returndatasize)\n    tag_64:\n      pop\n        /* \"Lottery.sol\":1671:1672  0 */\n      0x00\n        /* \"Lottery.sol\":1657:1673  new address[](0) */\n      0xffffffffffffffff\n      dup2\n      gt\n      iszero\n      tag_65\n      jumpi\n      tag_66\n      tag_67\n      jump\t// in\n    tag_66:\n    tag_65:\n      mload(0x40)\n      swap1\n      dup1\n      dup3\n      mstore\n      dup1\n      0x20\n      mul\n      0x20\n      add\n      dup3\n      add\n      0x40\n      mstore\n      dup1\n      iszero\n      tag_68\n      jumpi\n      dup2\n      0x20\n      add\n      0x20\n      dup3\n      mul\n      dup1\n      calldatasize\n      dup4\n      calldatacopy\n      dup1\n      dup3\n      add\n      swap2\n      pop\n      pop\n      swap1\n      pop\n    tag_68:\n      pop\n        /* \"Lottery.sol\":1647:1654  players */\n      0x01\n        /* \"Lottery.sol\":1647:1673  players = new address[](0) */\n      swap1\n      dup1\n      mload\n      swap1\n      0x20\n      add\n      swap1\n      tag_69\n      swap3\n      swap2\n      swap1\n      tag_70\n      jump\t// in\n    tag_69:\n      pop\n        /* \"Lottery.sol\":1495:1681  {... */\n      pop\n        /* \"Lottery.sol\":1457:1681  function pickWinner() public restrict {... */\n      jump\t// out\n        /* \"Lottery.sol\":1689:1783  function getPlayers() public view returns (address[] memory) {... */\n    tag_26:\n        /* \"Lottery.sol\":1732:1748  address[] memory */\n      0x60\n        /* \"Lottery.sol\":1768:1775  players */\n      0x01\n        /* \"Lottery.sol\":1761:1775  return players */\n      dup1\n      sload\n      dup1\n      0x20\n      mul\n      0x20\n      add\n      mload(0x40)\n      swap1\n      dup2\n      add\n      0x40\n      mstore\n      dup1\n      swap3\n      swap2\n      swap1\n      dup2\n      dup2\n      mstore\n      0x20\n      add\n      dup3\n      dup1\n      sload\n      dup1\n      iszero\n      tag_72\n      jumpi\n      0x20\n      mul\n      dup3\n      add\n      swap2\n      swap1\n      0x00\n      mstore\n      keccak256(0x00, 0x20)\n      swap1\n    tag_73:\n      dup2\n      0x00\n      swap1\n      sload\n      swap1\n      0x0100\n      exp\n      swap1\n      div\n      0xffffffffffffffffffffffffffffffffffffffff\n      and\n      0xffffffffffffffffffffffffffffffffffffffff\n      and\n      dup2\n      mstore\n      0x20\n      add\n      swap1\n      0x01\n      add\n      swap1\n      dup1\n      dup4\n      gt\n      tag_73\n      jumpi\n    tag_72:\n      pop\n      pop\n      pop\n      pop\n      pop\n      swap1\n      pop\n        /* \"Lottery.sol\":1689:1783  function getPlayers() public view returns (address[] memory) {... */\n      swap1\n      jump\t// out\n        /* \"Lottery.sol\":853:884  uint public minimumContribution */\n    tag_31:\n      sload(0x03)\n      dup2\n      jump\t// out\n        /* \"Lottery.sol\":825:846  address public winner */\n    tag_36:\n      0x02\n      0x00\n      swap1\n      sload\n      swap1\n      0x0100\n      exp\n      swap1\n      div\n      0xffffffffffffffffffffffffffffffffffffffff\n      and\n      dup2\n      jump\t// out\n        /* \"Lottery.sol\":1206:1292  function enter() public payable minimumPay {... */\n    tag_39:\n        /* \"Lottery.sol\":1934:1953  minimumContribution */\n      sload(0x03)\n        /* \"Lottery.sol\":1921:1930  msg.value */\n      callvalue\n        /* \"Lottery.sol\":1921:1953  msg.value >= minimumContribution */\n      lt\n      iszero\n        /* \"Lottery.sol\":1913:1954  require(msg.value >= minimumContribution) */\n      tag_75\n      jumpi\n      0x00\n      dup1\n      revert\n    tag_75:\n        /* \"Lottery.sol\":1260:1267  players */\n      0x01\n        /* \"Lottery.sol\":1273:1283  msg.sender */\n      caller\n        /* \"Lottery.sol\":1260:1284  players.push(msg.sender) */\n      swap1\n      dup1\n      0x01\n      dup2\n      sload\n      add\n      dup1\n      dup3\n      sstore\n      dup1\n      swap2\n      pop\n      pop\n      0x01\n      swap1\n      sub\n      swap1\n      0x00\n      mstore\n      keccak256(0x00, 0x20)\n      add\n      0x00\n      swap1\n      swap2\n      swap1\n      swap2\n      swap1\n      swap2\n      0x0100\n      exp\n      dup2\n      sload\n      dup2\n      0xffffffffffffffffffffffffffffffffffffffff\n      mul\n      not\n      and\n      swap1\n      dup4\n      0xffffffffffffffffffffffffffffffffffffffff\n      and\n      mul\n      or\n      swap1\n      sstore\n      pop\n        /* \"Lottery.sol\":1206:1292  function enter() public payable minimumPay {... */\n      jump\t// out\n        /* \"Lottery.sol\":794:818  address[] public players */\n    tag_44:\n      0x01\n      dup2\n      dup2\n      sload\n      dup2\n      lt\n      tag_78\n      jumpi\n      0x00\n      dup1\n      revert\n    tag_78:\n      swap1\n      0x00\n      mstore\n      keccak256(0x00, 0x20)\n      add\n      0x00\n      swap2\n      pop\n      sload\n      swap1\n      0x0100\n      exp\n      swap1\n      div\n      0xffffffffffffffffffffffffffffffffffffffff\n      and\n      dup2\n      jump\t// out\n        /* \"Lottery.sol\":1300:1449  function random() private view returns (uint) {... */\n    tag_56:\n        /* \"Lottery.sol\":1340:1344  uint */\n      0x00\n        /* \"Lottery.sol\":1396:1412  block.difficulty */\n      prevrandao\n        /* \"Lottery.sol\":1414:1429  block.timestamp */\n      timestamp\n        /* \"Lottery.sol\":1431:1438  players */\n      0x01\n        /* \"Lottery.sol\":1379:1439  abi.encodePacked(block.difficulty, block.timestamp, players) */\n      add(0x20, mload(0x40))\n      tag_81\n      swap4\n      swap3\n      swap2\n      swap1\n      tag_82\n      jump\t// in\n    tag_81:\n      mload(0x40)\n      0x20\n      dup2\n      dup4\n      sub\n      sub\n      dup2\n      mstore\n      swap1\n      0x40\n      mstore\n        /* \"Lottery.sol\":1369:1440  keccak256(abi.encodePacked(block.difficulty, block.timestamp, players)) */\n      dup1\n      mload\n      swap1\n      0x20\n      add\n      keccak256\n        /* \"Lottery.sol\":1364:1441  uint(keccak256(abi.encodePacked(block.difficulty, block.timestamp, players))) */\n      0x00\n      shr\n        /* \"Lottery.sol\":1357:1441  return uint(keccak256(abi.encodePacked(block.difficulty, block.timestamp, players))) */\n      swap1\n      pop\n        /* \"Lottery.sol\":1300:1449  function random() private view returns (uint) {... */\n      swap1\n      jump\t// out\n    tag_70:\n      dup3\n      dup1\n      sload\n      dup3\n      dup3\n      sstore\n      swap1\n      0x00\n      mstore\n      keccak256(0x00, 0x20)\n      swap1\n      dup2\n      add\n      swap3\n      dup3\n      iszero\n      tag_83\n      jumpi\n      swap2\n      0x20\n      mul\n      dup3\n      add\n    tag_84:\n      dup3\n      dup2\n      gt\n      iszero\n      tag_85\n      jumpi\n      dup3\n      mload\n      dup3\n      exp(0x0100, 0x00)\n      dup2\n      sload\n      dup2\n      0xffffffffffffffffffffffffffffffffffffffff\n      mul\n      not\n      and\n      swap1\n      dup4\n      0xffffffffffffffffffffffffffffffffffffffff\n      and\n      mul\n      or\n      swap1\n      sstore\n      pop\n      swap2\n      0x20\n      add\n      swap2\n      swap1\n      0x01\n      add\n      swap1\n      jump(tag_84)\n    tag_85:\n    tag_83:\n      pop\n      swap1\n      pop\n      tag_86\n      swap2\n      swap1\n      tag_87\n      jump\t// in\n    tag_86:\n      pop\n      swap1\n      jump\t// out\n    tag_87:\n    tag_88:\n      dup1\n      dup3\n      gt\n      iszero\n      tag_89\n      jumpi\n      0x00\n      dup2\n      0x00\n      swap1\n      sstore\n      pop\n      0x01\n      add\n      jump(tag_88)\n    tag_89:\n      pop\n      swap1\n      jump\t// out\n        /* \"#utility.yul\":7:133   */\n    tag_90:\n        /* \"#utility.yul\":44:51   */\n      0x00\n        /* \"#utility.yul\":84:126   */\n      0xffffffffffffffffffffffffffffffffffffffff\n        /* \"#utility.yul\":77:82   */\n      dup3\n        /* \"#utility.yul\":73:127   */\n      and\n        /* \"#utility.yul\":62:127   */\n      swap1\n      pop\n        /* \"#utility.yul\":7:133   */\n      swap2\n      swap1\n      pop\n      jump\t// out\n        /* \"#utility.yul\":139:235   */\n    tag_91:\n        /* \"#utility.yul\":176:183   */\n      0x00\n        /* \"#utility.yul\":205:229   */\n      tag_130\n        /* \"#utility.yul\":223:228   */\n      dup3\n        /* \"#utility.yul\":205:229   */\n      tag_90\n      jump\t// in\n    tag_130:\n        /* \"#utility.yul\":194:229   */\n      swap1\n      pop\n        /* \"#utility.yul\":139:235   */\n      swap2\n      swap1\n      pop\n      jump\t// out\n        /* \"#utility.yul\":241:359   */\n    tag_92:\n        /* \"#utility.yul\":328:352   */\n      tag_132\n        /* \"#utility.yul\":346:351   */\n      dup2\n        /* \"#utility.yul\":328:352   */\n      tag_91\n      jump\t// in\n    tag_132:\n        /* \"#utility.yul\":323:326   */\n      dup3\n        /* \"#utility.yul\":316:353   */\n      mstore\n        /* \"#utility.yul\":241:359   */\n      pop\n      pop\n      jump\t// out\n        /* \"#utility.yul\":365:587   */\n    tag_15:\n        /* \"#utility.yul\":458:462   */\n      0x00\n        /* \"#utility.yul\":496:498   */\n      0x20\n        /* \"#utility.yul\":485:494   */\n      dup3\n        /* \"#utility.yul\":481:499   */\n      add\n        /* \"#utility.yul\":473:499   */\n      swap1\n      pop\n        /* \"#utility.yul\":509:580   */\n      tag_134\n        /* \"#utility.yul\":577:578   */\n      0x00\n        /* \"#utility.yul\":566:575   */\n      dup4\n        /* \"#utility.yul\":562:579   */\n      add\n        /* \"#utility.yul\":553:559   */\n      dup5\n        /* \"#utility.yul\":509:580   */\n      tag_92\n      jump\t// in\n    tag_134:\n        /* \"#utility.yul\":365:587   */\n      swap3\n      swap2\n      pop\n      pop\n      jump\t// out\n        /* \"#utility.yul\":593:692   */\n    tag_93:\n        /* \"#utility.yul\":645:651   */\n      0x00\n        /* \"#utility.yul\":679:684   */\n      dup2\n        /* \"#utility.yul\":673:685   */\n      mload\n        /* \"#utility.yul\":663:685   */\n      swap1\n      pop\n        /* \"#utility.yul\":593:692   */\n      swap2\n      swap1\n      pop\n      jump\t// out\n        /* \"#utility.yul\":698:867   */\n    tag_94:\n        /* \"#utility.yul\":782:793   */\n      0x00\n        /* \"#utility.yul\":816:822   */\n      dup3\n        /* \"#utility.yul\":811:814   */\n      dup3\n        /* \"#utility.yul\":804:823   */\n      mstore\n        /* \"#utility.yul\":856:860   */\n      0x20\n        /* \"#utility.yul\":851:854   */\n      dup3\n        /* \"#utility.yul\":847:861   */\n      add\n        /* \"#utility.yul\":832:861   */\n      swap1\n      pop\n        /* \"#utility.yul\":698:867   */\n      swap3\n      swap2\n      pop\n      pop\n      jump\t// out\n        /* \"#utility.yul\":873:1012   */\n    tag_95:\n        /* \"#utility.yul\":962:968   */\n      dup3\n        /* \"#utility.yul\":957:960   */\n      dup2\n        /* \"#utility.yul\":952:955   */\n      dup4\n        /* \"#utility.yul\":946:969   */\n      mcopy\n        /* \"#utility.yul\":1003:1004   */\n      0x00\n        /* \"#utility.yul\":994:1000   */\n      dup4\n        /* \"#utility.yul\":989:992   */\n      dup4\n        /* \"#utility.yul\":985:1001   */\n      add\n        /* \"#utility.yul\":978:1005   */\n      mstore\n        /* \"#utility.yul\":873:1012   */\n      pop\n      pop\n      pop\n      jump\t// out\n        /* \"#utility.yul\":1018:1120   */\n    tag_96:\n        /* \"#utility.yul\":1059:1065   */\n      0x00\n        /* \"#utility.yul\":1110:1112   */\n      0x1f\n        /* \"#utility.yul\":1106:1113   */\n      not\n        /* \"#utility.yul\":1101:1103   */\n      0x1f\n        /* \"#utility.yul\":1094:1099   */\n      dup4\n        /* \"#utility.yul\":1090:1104   */\n      add\n        /* \"#utility.yul\":1086:1114   */\n      and\n        /* \"#utility.yul\":1076:1114   */\n      swap1\n      pop\n        /* \"#utility.yul\":1018:1120   */\n      swap2\n      swap1\n      pop\n      jump\t// out\n        /* \"#utility.yul\":1126:1503   */\n    tag_97:\n        /* \"#utility.yul\":1214:1217   */\n      0x00\n        /* \"#utility.yul\":1242:1281   */\n      tag_140\n        /* \"#utility.yul\":1275:1280   */\n      dup3\n        /* \"#utility.yul\":1242:1281   */\n      tag_93\n      jump\t// in\n    tag_140:\n        /* \"#utility.yul\":1297:1368   */\n      tag_141\n        /* \"#utility.yul\":1361:1367   */\n      dup2\n        /* \"#utility.yul\":1356:1359   */\n      dup6\n        /* \"#utility.yul\":1297:1368   */\n      tag_94\n      jump\t// in\n    tag_141:\n        /* \"#utility.yul\":1290:1368   */\n      swap4\n      pop\n        /* \"#utility.yul\":1377:1442   */\n      tag_142\n        /* \"#utility.yul\":1435:1441   */\n      dup2\n        /* \"#utility.yul\":1430:1433   */\n      dup6\n        /* \"#utility.yul\":1423:1427   */\n      0x20\n        /* \"#utility.yul\":1416:1421   */\n      dup7\n        /* \"#utility.yul\":1412:1428   */\n      add\n        /* \"#utility.yul\":1377:1442   */\n      tag_95\n      jump\t// in\n    tag_142:\n        /* \"#utility.yul\":1467:1496   */\n      tag_143\n        /* \"#utility.yul\":1489:1495   */\n      dup2\n        /* \"#utility.yul\":1467:1496   */\n      tag_96\n      jump\t// in\n    tag_143:\n        /* \"#utility.yul\":1462:1465   */\n      dup5\n        /* \"#utility.yul\":1458:1497   */\n      add\n        /* \"#utility.yul\":1451:1497   */\n      swap2\n      pop\n        /* \"#utility.yul\":1218:1503   */\n      pop\n        /* \"#utility.yul\":1126:1503   */\n      swap3\n      swap2\n      pop\n      pop\n      jump\t// out\n        /* \"#utility.yul\":1509:1586   */\n    tag_98:\n        /* \"#utility.yul\":1546:1553   */\n      0x00\n        /* \"#utility.yul\":1575:1580   */\n      dup2\n        /* \"#utility.yul\":1564:1580   */\n      swap1\n      pop\n        /* \"#utility.yul\":1509:1586   */\n      swap2\n      swap1\n      pop\n      jump\t// out\n        /* \"#utility.yul\":1592:1710   */\n    tag_99:\n        /* \"#utility.yul\":1679:1703   */\n      tag_146\n        /* \"#utility.yul\":1697:1702   */\n      dup2\n        /* \"#utility.yul\":1679:1703   */\n      tag_98\n      jump\t// in\n    tag_146:\n        /* \"#utility.yul\":1674:1677   */\n      dup3\n        /* \"#utility.yul\":1667:1704   */\n      mstore\n        /* \"#utility.yul\":1592:1710   */\n      pop\n      pop\n      jump\t// out\n        /* \"#utility.yul\":1716:2139   */\n    tag_20:\n        /* \"#utility.yul\":1857:1861   */\n      0x00\n        /* \"#utility.yul\":1895:1897   */\n      0x40\n        /* \"#utility.yul\":1884:1893   */\n      dup3\n        /* \"#utility.yul\":1880:1898   */\n      add\n        /* \"#utility.yul\":1872:1898   */\n      swap1\n      pop\n        /* \"#utility.yul\":1944:1953   */\n      dup2\n        /* \"#utility.yul\":1938:1942   */\n      dup2\n        /* \"#utility.yul\":1934:1954   */\n      sub\n        /* \"#utility.yul\":1930:1931   */\n      0x00\n        /* \"#utility.yul\":1919:1928   */\n      dup4\n        /* \"#utility.yul\":1915:1932   */\n      add\n        /* \"#utility.yul\":1908:1955   */\n      mstore\n        /* \"#utility.yul\":1972:2050   */\n      tag_148\n        /* \"#utility.yul\":2045:2049   */\n      dup2\n        /* \"#utility.yul\":2036:2042   */\n      dup6\n        /* \"#utility.yul\":1972:2050   */\n      tag_97\n      jump\t// in\n    tag_148:\n        /* \"#utility.yul\":1964:2050   */\n      swap1\n      pop\n        /* \"#utility.yul\":2060:2132   */\n      tag_149\n        /* \"#utility.yul\":2128:2130   */\n      0x20\n        /* \"#utility.yul\":2117:2126   */\n      dup4\n        /* \"#utility.yul\":2113:2131   */\n      add\n        /* \"#utility.yul\":2104:2110   */\n      dup5\n        /* \"#utility.yul\":2060:2132   */\n      tag_99\n      jump\t// in\n    tag_149:\n        /* \"#utility.yul\":1716:2139   */\n      swap4\n      swap3\n      pop\n      pop\n      pop\n      jump\t// out\n        /* \"#utility.yul\":2145:2259   */\n    tag_100:\n        /* \"#utility.yul\":2212:2218   */\n      0x00\n        /* \"#utility.yul\":2246:2251   */\n      dup2\n        /* \"#utility.yul\":2240:2252   */\n      mload\n        /* \"#utility.yul\":2230:2252   */\n      swap1\n      pop\n        /* \"#utility.yul\":2145:2259   */\n      swap2\n      swap1\n      pop\n      jump\t// out\n        /* \"#utility.yul\":2265:2449   */\n    tag_101:\n        /* \"#utility.yul\":2364:2375   */\n      0x00\n        /* \"#utility.yul\":2398:2404   */\n      dup3\n        /* \"#utility.yul\":2393:2396   */\n      dup3\n        /* \"#utility.yul\":2386:2405   */\n      mstore\n        /* \"#utility.yul\":2438:2442   */\n      0x20\n        /* \"#utility.yul\":2433:2436   */\n      dup3\n        /* \"#utility.yul\":2429:2443   */\n      add\n        /* \"#utility.yul\":2414:2443   */\n      swap1\n      pop\n        /* \"#utility.yul\":2265:2449   */\n      swap3\n      swap2\n      pop\n      pop\n      jump\t// out\n        /* \"#utility.yul\":2455:2587   */\n    tag_102:\n        /* \"#utility.yul\":2522:2526   */\n      0x00\n        /* \"#utility.yul\":2545:2548   */\n      dup2\n        /* \"#utility.yul\":2537:2548   */\n      swap1\n      pop\n        /* \"#utility.yul\":2575:2579   */\n      0x20\n        /* \"#utility.yul\":2570:2573   */\n      dup3\n        /* \"#utility.yul\":2566:2580   */\n      add\n        /* \"#utility.yul\":2558:2580   */\n      swap1\n      pop\n        /* \"#utility.yul\":2455:2587   */\n      swap2\n      swap1\n      pop\n      jump\t// out\n        /* \"#utility.yul\":2593:2701   */\n    tag_103:\n        /* \"#utility.yul\":2670:2694   */\n      tag_154\n        /* \"#utility.yul\":2688:2693   */\n      dup2\n        /* \"#utility.yul\":2670:2694   */\n      tag_91\n      jump\t// in\n    tag_154:\n        /* \"#utility.yul\":2665:2668   */\n      dup3\n        /* \"#utility.yul\":2658:2695   */\n      mstore\n        /* \"#utility.yul\":2593:2701   */\n      pop\n      pop\n      jump\t// out\n        /* \"#utility.yul\":2707:2886   */\n    tag_104:\n        /* \"#utility.yul\":2776:2786   */\n      0x00\n        /* \"#utility.yul\":2797:2843   */\n      tag_156\n        /* \"#utility.yul\":2839:2842   */\n      dup4\n        /* \"#utility.yul\":2831:2837   */\n      dup4\n        /* \"#utility.yul\":2797:2843   */\n      tag_103\n      jump\t// in\n    tag_156:\n        /* \"#utility.yul\":2875:2879   */\n      0x20\n        /* \"#utility.yul\":2870:2873   */\n      dup4\n        /* \"#utility.yul\":2866:2880   */\n      add\n        /* \"#utility.yul\":2852:2880   */\n      swap1\n      pop\n        /* \"#utility.yul\":2707:2886   */\n      swap3\n      swap2\n      pop\n      pop\n      jump\t// out\n        /* \"#utility.yul\":2892:3005   */\n    tag_105:\n        /* \"#utility.yul\":2962:2966   */\n      0x00\n        /* \"#utility.yul\":2994:2998   */\n      0x20\n        /* \"#utility.yul\":2989:2992   */\n      dup3\n        /* \"#utility.yul\":2985:2999   */\n      add\n        /* \"#utility.yul\":2977:2999   */\n      swap1\n      pop\n        /* \"#utility.yul\":2892:3005   */\n      swap2\n      swap1\n      pop\n      jump\t// out\n        /* \"#utility.yul\":3041:3773   */\n    tag_106:\n        /* \"#utility.yul\":3160:3163   */\n      0x00\n        /* \"#utility.yul\":3189:3243   */\n      tag_159\n        /* \"#utility.yul\":3237:3242   */\n      dup3\n        /* \"#utility.yul\":3189:3243   */\n      tag_100\n      jump\t// in\n    tag_159:\n        /* \"#utility.yul\":3259:3345   */\n      tag_160\n        /* \"#utility.yul\":3338:3344   */\n      dup2\n        /* \"#utility.yul\":3333:3336   */\n      dup6\n        /* \"#utility.yul\":3259:3345   */\n      tag_101\n      jump\t// in\n    tag_160:\n        /* \"#utility.yul\":3252:3345   */\n      swap4\n      pop\n        /* \"#utility.yul\":3369:3425   */\n      tag_161\n        /* \"#utility.yul\":3419:3424   */\n      dup4\n        /* \"#utility.yul\":3369:3425   */\n      tag_102\n      jump\t// in\n    tag_161:\n        /* \"#utility.yul\":3448:3455   */\n      dup1\n        /* \"#utility.yul\":3479:3480   */\n      0x00\n        /* \"#utility.yul\":3464:3748   */\n    tag_162:\n        /* \"#utility.yul\":3489:3495   */\n      dup4\n        /* \"#utility.yul\":3486:3487   */\n      dup2\n        /* \"#utility.yul\":3483:3496   */\n      lt\n        /* \"#utility.yul\":3464:3748   */\n      iszero\n      tag_164\n      jumpi\n        /* \"#utility.yul\":3565:3571   */\n      dup2\n        /* \"#utility.yul\":3559:3572   */\n      mload\n        /* \"#utility.yul\":3592:3655   */\n      tag_165\n        /* \"#utility.yul\":3651:3654   */\n      dup9\n        /* \"#utility.yul\":3636:3649   */\n      dup3\n        /* \"#utility.yul\":3592:3655   */\n      tag_104\n      jump\t// in\n    tag_165:\n        /* \"#utility.yul\":3585:3655   */\n      swap8\n      pop\n        /* \"#utility.yul\":3678:3738   */\n      tag_166\n        /* \"#utility.yul\":3731:3737   */\n      dup4\n        /* \"#utility.yul\":3678:3738   */\n      tag_105\n      jump\t// in\n    tag_166:\n        /* \"#utility.yul\":3668:3738   */\n      swap3\n      pop\n        /* \"#utility.yul\":3524:3748   */\n      pop\n        /* \"#utility.yul\":3511:3512   */\n      0x01\n        /* \"#utility.yul\":3508:3509   */\n      dup2\n        /* \"#utility.yul\":3504:3513   */\n      add\n        /* \"#utility.yul\":3499:3513   */\n      swap1\n      pop\n        /* \"#utility.yul\":3464:3748   */\n      jump(tag_162)\n    tag_164:\n        /* \"#utility.yul\":3468:3482   */\n      pop\n        /* \"#utility.yul\":3764:3767   */\n      dup6\n        /* \"#utility.yul\":3757:3767   */\n      swap4\n      pop\n        /* \"#utility.yul\":3165:3773   */\n      pop\n      pop\n      pop\n        /* \"#utility.yul\":3041:3773   */\n      swap3\n      swap2\n      pop\n      pop\n      jump\t// out\n        /* \"#utility.yul\":3779:4152   */\n    tag_28:\n        /* \"#utility.yul\":3922:3926   */\n      0x00\n        /* \"#utility.yul\":3960:3962   */\n      0x20\n        /* \"#utility.yul\":3949:3958   */\n      dup3\n        /* \"#utility.yul\":3945:3963   */\n      add\n        /* \"#utility.yul\":3937:3963   */\n      swap1\n      pop\n        /* \"#utility.yul\":4009:4018   */\n      dup2\n        /* \"#utility.yul\":4003:4007   */\n      dup2\n        /* \"#utility.yul\":3999:4019   */\n      sub\n        /* \"#utility.yul\":3995:3996   */\n      0x00\n        /* \"#utility.yul\":3984:3993   */\n      dup4\n        /* \"#utility.yul\":3980:3997   */\n      add\n        /* \"#utility.yul\":3973:4020   */\n      mstore\n        /* \"#utility.yul\":4037:4145   */\n      tag_168\n        /* \"#utility.yul\":4140:4144   */\n      dup2\n        /* \"#utility.yul\":4131:4137   */\n      dup5\n        /* \"#utility.yul\":4037:4145   */\n      tag_106\n      jump\t// in\n    tag_168:\n        /* \"#utility.yul\":4029:4145   */\n      swap1\n      pop\n        /* \"#utility.yul\":3779:4152   */\n      swap3\n      swap2\n      pop\n      pop\n      jump\t// out\n        /* \"#utility.yul\":4158:4380   */\n    tag_33:\n        /* \"#utility.yul\":4251:4255   */\n      0x00\n        /* \"#utility.yul\":4289:4291   */\n      0x20\n        /* \"#utility.yul\":4278:4287   */\n      dup3\n        /* \"#utility.yul\":4274:4292   */\n      add\n        /* \"#utility.yul\":4266:4292   */\n      swap1\n      pop\n        /* \"#utility.yul\":4302:4373   */\n      tag_170\n        /* \"#utility.yul\":4370:4371   */\n      0x00\n        /* \"#utility.yul\":4359:4368   */\n      dup4\n        /* \"#utility.yul\":4355:4372   */\n      add\n        /* \"#utility.yul\":4346:4352   */\n      dup5\n        /* \"#utility.yul\":4302:4373   */\n      tag_99\n      jump\t// in\n    tag_170:\n        /* \"#utility.yul\":4158:4380   */\n      swap3\n      swap2\n      pop\n      pop\n      jump\t// out\n        /* \"#utility.yul\":4467:4584   */\n    tag_108:\n        /* \"#utility.yul\":4576:4577   */\n      0x00\n        /* \"#utility.yul\":4573:4574   */\n      dup1\n        /* \"#utility.yul\":4566:4578   */\n      revert\n        /* \"#utility.yul\":4713:4835   */\n    tag_110:\n        /* \"#utility.yul\":4786:4810   */\n      tag_175\n        /* \"#utility.yul\":4804:4809   */\n      dup2\n        /* \"#utility.yul\":4786:4810   */\n      tag_98\n      jump\t// in\n    tag_175:\n        /* \"#utility.yul\":4779:4784   */\n      dup2\n        /* \"#utility.yul\":4776:4811   */\n      eq\n        /* \"#utility.yul\":4766:4829   */\n      tag_176\n      jumpi\n        /* \"#utility.yul\":4825:4826   */\n      0x00\n        /* \"#utility.yul\":4822:4823   */\n      dup1\n        /* \"#utility.yul\":4815:4827   */\n      revert\n        /* \"#utility.yul\":4766:4829   */\n    tag_176:\n        /* \"#utility.yul\":4713:4835   */\n      pop\n      jump\t// out\n        /* \"#utility.yul\":4841:4980   */\n    tag_111:\n        /* \"#utility.yul\":4887:4892   */\n      0x00\n        /* \"#utility.yul\":4925:4931   */\n      dup2\n        /* \"#utility.yul\":4912:4932   */\n      calldataload\n        /* \"#utility.yul\":4903:4932   */\n      swap1\n      pop\n        /* \"#utility.yul\":4941:4974   */\n      tag_178\n        /* \"#utility.yul\":4968:4973   */\n      dup2\n        /* \"#utility.yul\":4941:4974   */\n      tag_110\n      jump\t// in\n    tag_178:\n        /* \"#utility.yul\":4841:4980   */\n      swap3\n      swap2\n      pop\n      pop\n      jump\t// out\n        /* \"#utility.yul\":4986:5315   */\n    tag_43:\n        /* \"#utility.yul\":5045:5051   */\n      0x00\n        /* \"#utility.yul\":5094:5096   */\n      0x20\n        /* \"#utility.yul\":5082:5091   */\n      dup3\n        /* \"#utility.yul\":5073:5080   */\n      dup5\n        /* \"#utility.yul\":5069:5092   */\n      sub\n        /* \"#utility.yul\":5065:5097   */\n      slt\n        /* \"#utility.yul\":5062:5181   */\n      iszero\n      tag_180\n      jumpi\n        /* \"#utility.yul\":5100:5179   */\n      tag_181\n      tag_108\n      jump\t// in\n    tag_181:\n        /* \"#utility.yul\":5062:5181   */\n    tag_180:\n        /* \"#utility.yul\":5220:5221   */\n      0x00\n        /* \"#utility.yul\":5245:5298   */\n      tag_182\n        /* \"#utility.yul\":5290:5297   */\n      dup5\n        /* \"#utility.yul\":5281:5287   */\n      dup3\n        /* \"#utility.yul\":5270:5279   */\n      dup6\n        /* \"#utility.yul\":5266:5288   */\n      add\n        /* \"#utility.yul\":5245:5298   */\n      tag_111\n      jump\t// in\n    tag_182:\n        /* \"#utility.yul\":5235:5298   */\n      swap2\n      pop\n        /* \"#utility.yul\":5191:5308   */\n      pop\n        /* \"#utility.yul\":4986:5315   */\n      swap3\n      swap2\n      pop\n      pop\n      jump\t// out\n        /* \"#utility.yul\":5321:5501   */\n    tag_112:\n        /* \"#utility.yul\":5369:5446   */\n      0x4e487b7100000000000000000000000000000000000000000000000000000000\n        /* \"#utility.yul\":5366:5367   */\n      0x00\n        /* \"#utility.yul\":5359:5447   */\n      mstore\n        /* \"#utility.yul\":5466:5470   */\n      0x22\n        /* \"#utility.yul\":5463:5464   */\n      0x04\n        /* \"#utility.yul\":5456:5471   */\n      mstore\n        /* \"#utility.yul\":5490:5494   */\n      0x24\n        /* \"#utility.yul\":5487:5488   */\n      0x00\n        /* \"#utility.yul\":5480:5495   */\n      revert\n        /* \"#utility.yul\":5507:5827   */\n    tag_47:\n        /* \"#utility.yul\":5551:5557   */\n      0x00\n        /* \"#utility.yul\":5588:5589   */\n      0x02\n        /* \"#utility.yul\":5582:5586   */\n      dup3\n        /* \"#utility.yul\":5578:5590   */\n      div\n        /* \"#utility.yul\":5568:5590   */\n      swap1\n      pop\n        /* \"#utility.yul\":5635:5636   */\n      0x01\n        /* \"#utility.yul\":5629:5633   */\n      dup3\n        /* \"#utility.yul\":5625:5637   */\n      and\n        /* \"#utility.yul\":5656:5674   */\n      dup1\n        /* \"#utility.yul\":5646:5727   */\n      tag_185\n      jumpi\n        /* \"#utility.yul\":5712:5716   */\n      0x7f\n        /* \"#utility.yul\":5704:5710   */\n      dup3\n        /* \"#utility.yul\":5700:5717   */\n      and\n        /* \"#utility.yul\":5690:5717   */\n      swap2\n      pop\n        /* \"#utility.yul\":5646:5727   */\n    tag_185:\n        /* \"#utility.yul\":5774:5776   */\n      0x20\n        /* \"#utility.yul\":5766:5772   */\n      dup3\n        /* \"#utility.yul\":5763:5777   */\n      lt\n        /* \"#utility.yul\":5743:5761   */\n      dup2\n        /* \"#utility.yul\":5740:5778   */\n      sub\n        /* \"#utility.yul\":5737:5821   */\n      tag_186\n      jumpi\n        /* \"#utility.yul\":5793:5811   */\n      tag_187\n      tag_112\n      jump\t// in\n    tag_187:\n        /* \"#utility.yul\":5737:5821   */\n    tag_186:\n        /* \"#utility.yul\":5558:5827   */\n      pop\n        /* \"#utility.yul\":5507:5827   */\n      swap2\n      swap1\n      pop\n      jump\t// out\n        /* \"#utility.yul\":5833:6013   */\n    tag_113:\n        /* \"#utility.yul\":5881:5958   */\n      0x4e487b7100000000000000000000000000000000000000000000000000000000\n        /* \"#utility.yul\":5878:5879   */\n      0x00\n        /* \"#utility.yul\":5871:5959   */\n      mstore\n        /* \"#utility.yul\":5978:5982   */\n      0x12\n        /* \"#utility.yul\":5975:5976   */\n      0x04\n        /* \"#utility.yul\":5968:5983   */\n      mstore\n        /* \"#utility.yul\":6002:6006   */\n      0x24\n        /* \"#utility.yul\":5999:6000   */\n      0x00\n        /* \"#utility.yul\":5992:6007   */\n      revert\n        /* \"#utility.yul\":6019:6195   */\n    tag_58:\n        /* \"#utility.yul\":6051:6052   */\n      0x00\n        /* \"#utility.yul\":6068:6088   */\n      tag_190\n        /* \"#utility.yul\":6086:6087   */\n      dup3\n        /* \"#utility.yul\":6068:6088   */\n      tag_98\n      jump\t// in\n    tag_190:\n        /* \"#utility.yul\":6063:6088   */\n      swap2\n      pop\n        /* \"#utility.yul\":6102:6122   */\n      tag_191\n        /* \"#utility.yul\":6120:6121   */\n      dup4\n        /* \"#utility.yul\":6102:6122   */\n      tag_98\n      jump\t// in\n    tag_191:\n        /* \"#utility.yul\":6097:6122   */\n      swap3\n      pop\n        /* \"#utility.yul\":6141:6142   */\n      dup3\n        /* \"#utility.yul\":6131:6166   */\n      tag_192\n      jumpi\n        /* \"#utility.yul\":6146:6164   */\n      tag_193\n      tag_113\n      jump\t// in\n    tag_193:\n        /* \"#utility.yul\":6131:6166   */\n    tag_192:\n        /* \"#utility.yul\":6187:6188   */\n      dup3\n        /* \"#utility.yul\":6184:6185   */\n      dup3\n        /* \"#utility.yul\":6180:6189   */\n      mod\n        /* \"#utility.yul\":6175:6189   */\n      swap1\n      pop\n        /* \"#utility.yul\":6019:6195   */\n      swap3\n      swap2\n      pop\n      pop\n      jump\t// out\n        /* \"#utility.yul\":6201:6381   */\n    tag_61:\n        /* \"#utility.yul\":6249:6326   */\n      0x4e487b7100000000000000000000000000000000000000000000000000000000\n        /* \"#utility.yul\":6246:6247   */\n      0x00\n        /* \"#utility.yul\":6239:6327   */\n      mstore\n        /* \"#utility.yul\":6346:6350   */\n      0x32\n        /* \"#utility.yul\":6343:6344   */\n      0x04\n        /* \"#utility.yul\":6336:6351   */\n      mstore\n        /* \"#utility.yul\":6370:6374   */\n      0x24\n        /* \"#utility.yul\":6367:6368   */\n      0x00\n        /* \"#utility.yul\":6360:6375   */\n      revert\n        /* \"#utility.yul\":6387:6567   */\n    tag_67:\n        /* \"#utility.yul\":6435:6512   */\n      0x4e487b7100000000000000000000000000000000000000000000000000000000\n        /* \"#utility.yul\":6432:6433   */\n      0x00\n        /* \"#utility.yul\":6425:6513   */\n      mstore\n        /* \"#utility.yul\":6532:6536   */\n      0x41\n        /* \"#utility.yul\":6529:6530   */\n      0x04\n        /* \"#utility.yul\":6522:6537   */\n      mstore\n        /* \"#utility.yul\":6556:6560   */\n      0x24\n        /* \"#utility.yul\":6553:6554   */\n      0x00\n        /* \"#utility.yul\":6546:6561   */\n      revert\n        /* \"#utility.yul\":6573:6652   */\n    tag_114:\n        /* \"#utility.yul\":6612:6619   */\n      0x00\n        /* \"#utility.yul\":6641:6646   */\n      dup2\n        /* \"#utility.yul\":6630:6646   */\n      swap1\n      pop\n        /* \"#utility.yul\":6573:6652   */\n      swap2\n      swap1\n      pop\n      jump\t// out\n        /* \"#utility.yul\":6658:6815   */\n    tag_115:\n        /* \"#utility.yul\":6763:6808   */\n      tag_198\n        /* \"#utility.yul\":6783:6807   */\n      tag_199\n        /* \"#utility.yul\":6801:6806   */\n      dup3\n        /* \"#utility.yul\":6783:6807   */\n      tag_98\n      jump\t// in\n    tag_199:\n        /* \"#utility.yul\":6763:6808   */\n      tag_114\n      jump\t// in\n    tag_198:\n        /* \"#utility.yul\":6758:6761   */\n      dup3\n        /* \"#utility.yul\":6751:6809   */\n      mstore\n        /* \"#utility.yul\":6658:6815   */\n      pop\n      pop\n      jump\t// out\n        /* \"#utility.yul\":6821:6932   */\n    tag_116:\n        /* \"#utility.yul\":6885:6891   */\n      0x00\n        /* \"#utility.yul\":6919:6924   */\n      dup2\n        /* \"#utility.yul\":6913:6925   */\n      sload\n        /* \"#utility.yul\":6903:6925   */\n      swap1\n      pop\n        /* \"#utility.yul\":6821:6932   */\n      swap2\n      swap1\n      pop\n      jump\t// out\n        /* \"#utility.yul\":6938:7101   */\n    tag_117:\n        /* \"#utility.yul\":7055:7066   */\n      0x00\n        /* \"#utility.yul\":7092:7095   */\n      dup2\n        /* \"#utility.yul\":7077:7095   */\n      swap1\n      pop\n        /* \"#utility.yul\":6938:7101   */\n      swap3\n      swap2\n      pop\n      pop\n      jump\t// out\n        /* \"#utility.yul\":7107:7263   */\n    tag_118:\n        /* \"#utility.yul\":7171:7175   */\n      0x00\n        /* \"#utility.yul\":7194:7197   */\n      dup2\n        /* \"#utility.yul\":7186:7197   */\n      swap1\n      pop\n        /* \"#utility.yul\":7217:7220   */\n      dup2\n        /* \"#utility.yul\":7214:7215   */\n      0x00\n        /* \"#utility.yul\":7207:7221   */\n      mstore\n        /* \"#utility.yul\":7251:7255   */\n      0x20\n        /* \"#utility.yul\":7248:7249   */\n      0x00\n        /* \"#utility.yul\":7238:7256   */\n      keccak256\n        /* \"#utility.yul\":7230:7256   */\n      swap1\n      pop\n        /* \"#utility.yul\":7107:7263   */\n      swap2\n      swap1\n      pop\n      jump\t// out\n        /* \"#utility.yul\":7269:7385   */\n    tag_119:\n        /* \"#utility.yul\":7354:7378   */\n      tag_204\n        /* \"#utility.yul\":7372:7377   */\n      dup2\n        /* \"#utility.yul\":7354:7378   */\n      tag_91\n      jump\t// in\n    tag_204:\n        /* \"#utility.yul\":7349:7352   */\n      dup3\n        /* \"#utility.yul\":7342:7379   */\n      mstore\n        /* \"#utility.yul\":7269:7385   */\n      pop\n      pop\n      jump\t// out\n        /* \"#utility.yul\":7391:7586   */\n    tag_120:\n        /* \"#utility.yul\":7468:7478   */\n      0x00\n        /* \"#utility.yul\":7489:7543   */\n      tag_206\n        /* \"#utility.yul\":7539:7542   */\n      dup4\n        /* \"#utility.yul\":7531:7537   */\n      dup4\n        /* \"#utility.yul\":7489:7543   */\n      tag_119\n      jump\t// in\n    tag_206:\n        /* \"#utility.yul\":7575:7579   */\n      0x20\n        /* \"#utility.yul\":7570:7573   */\n      dup4\n        /* \"#utility.yul\":7566:7580   */\n      add\n        /* \"#utility.yul\":7552:7580   */\n      swap1\n      pop\n        /* \"#utility.yul\":7391:7586   */\n      swap3\n      swap2\n      pop\n      pop\n      jump\t// out\n        /* \"#utility.yul\":7592:7694   */\n    tag_121:\n        /* \"#utility.yul\":7634:7642   */\n      0x00\n        /* \"#utility.yul\":7681:7686   */\n      dup2\n        /* \"#utility.yul\":7678:7679   */\n      0x00\n        /* \"#utility.yul\":7674:7687   */\n      shr\n        /* \"#utility.yul\":7653:7687   */\n      swap1\n      pop\n        /* \"#utility.yul\":7592:7694   */\n      swap2\n      swap1\n      pop\n      jump\t// out\n        /* \"#utility.yul\":7700:7839   */\n    tag_122:\n        /* \"#utility.yul\":7750:7757   */\n      0x00\n        /* \"#utility.yul\":7790:7832   */\n      0xffffffffffffffffffffffffffffffffffffffff\n        /* \"#utility.yul\":7783:7788   */\n      dup3\n        /* \"#utility.yul\":7779:7833   */\n      and\n        /* \"#utility.yul\":7768:7833   */\n      swap1\n      pop\n        /* \"#utility.yul\":7700:7839   */\n      swap2\n      swap1\n      pop\n      jump\t// out\n        /* \"#utility.yul\":7845:8011   */\n    tag_123:\n        /* \"#utility.yul\":7914:7919   */\n      0x00\n        /* \"#utility.yul\":7939:8005   */\n      tag_210\n        /* \"#utility.yul\":7970:8004   */\n      tag_211\n        /* \"#utility.yul\":7993:8003   */\n      dup4\n        /* \"#utility.yul\":7970:8004   */\n      tag_121\n      jump\t// in\n    tag_211:\n        /* \"#utility.yul\":7939:8005   */\n      tag_122\n      jump\t// in\n    tag_210:\n        /* \"#utility.yul\":7930:8005   */\n      swap1\n      pop\n        /* \"#utility.yul\":7845:8011   */\n      swap2\n      swap1\n      pop\n      jump\t// out\n        /* \"#utility.yul\":8017:8161   */\n    tag_124:\n        /* \"#utility.yul\":8072:8077   */\n      0x00\n        /* \"#utility.yul\":8097:8154   */\n      tag_213\n        /* \"#utility.yul\":8148:8152   */\n      dup3\n        /* \"#utility.yul\":8142:8153   */\n      sload\n        /* \"#utility.yul\":8097:8154   */\n      tag_123\n      jump\t// in\n    tag_213:\n        /* \"#utility.yul\":8088:8154   */\n      swap1\n      pop\n        /* \"#utility.yul\":8017:8161   */\n      swap2\n      swap1\n      pop\n      jump\t// out\n        /* \"#utility.yul\":8167:8277   */\n    tag_125:\n        /* \"#utility.yul\":8234:8238   */\n      0x00\n        /* \"#utility.yul\":8266:8270   */\n      0x01\n        /* \"#utility.yul\":8261:8264   */\n      dup3\n        /* \"#utility.yul\":8257:8271   */\n      add\n        /* \"#utility.yul\":8249:8271   */\n      swap1\n      pop\n        /* \"#utility.yul\":8167:8277   */\n      swap2\n      swap1\n      pop\n      jump\t// out\n        /* \"#utility.yul\":8313:9108   */\n    tag_126:\n        /* \"#utility.yul\":8447:8450   */\n      0x00\n        /* \"#utility.yul\":8476:8527   */\n      tag_216\n        /* \"#utility.yul\":8521:8526   */\n      dup3\n        /* \"#utility.yul\":8476:8527   */\n      tag_116\n      jump\t// in\n    tag_216:\n        /* \"#utility.yul\":8543:8647   */\n      tag_217\n        /* \"#utility.yul\":8640:8646   */\n      dup2\n        /* \"#utility.yul\":8635:8638   */\n      dup6\n        /* \"#utility.yul\":8543:8647   */\n      tag_117\n      jump\t// in\n    tag_217:\n        /* \"#utility.yul\":8536:8647   */\n      swap4\n      pop\n        /* \"#utility.yul\":8671:8724   */\n      tag_218\n        /* \"#utility.yul\":8718:8723   */\n      dup4\n        /* \"#utility.yul\":8671:8724   */\n      tag_118\n      jump\t// in\n    tag_218:\n        /* \"#utility.yul\":8747:8754   */\n      dup1\n        /* \"#utility.yul\":8778:8779   */\n      0x00\n        /* \"#utility.yul\":8763:9083   */\n    tag_219:\n        /* \"#utility.yul\":8788:8794   */\n      dup4\n        /* \"#utility.yul\":8785:8786   */\n      dup2\n        /* \"#utility.yul\":8782:8795   */\n      lt\n        /* \"#utility.yul\":8763:9083   */\n      iszero\n      tag_221\n      jumpi\n        /* \"#utility.yul\":8858:8902   */\n      tag_222\n        /* \"#utility.yul\":8895:8901   */\n      dup3\n        /* \"#utility.yul\":8858:8902   */\n      tag_124\n      jump\t// in\n    tag_222:\n        /* \"#utility.yul\":8922:8993   */\n      tag_223\n        /* \"#utility.yul\":8989:8992   */\n      dup9\n        /* \"#utility.yul\":8974:8987   */\n      dup3\n        /* \"#utility.yul\":8922:8993   */\n      tag_120\n      jump\t// in\n    tag_223:\n        /* \"#utility.yul\":8915:8993   */\n      swap8\n      pop\n        /* \"#utility.yul\":9016:9073   */\n      tag_224\n        /* \"#utility.yul\":9066:9072   */\n      dup4\n        /* \"#utility.yul\":9016:9073   */\n      tag_125\n      jump\t// in\n    tag_224:\n        /* \"#utility.yul\":9006:9073   */\n      swap3\n      pop\n        /* \"#utility.yul\":8823:9083   */\n      pop\n        /* \"#utility.yul\":8810:8811   */\n      0x01\n        /* \"#utility.yul\":8807:8808   */\n      dup2\n        /* \"#utility.yul\":8803:8812   */\n      add\n        /* \"#utility.yul\":8798:8812   */\n      swap1\n      pop\n        /* \"#utility.yul\":8763:9083   */\n      jump(tag_219)\n    tag_221:\n        /* \"#utility.yul\":8767:8781   */\n      pop\n        /* \"#utility.yul\":9099:9102   */\n      dup6\n        /* \"#utility.yul\":9092:9102   */\n      swap4\n      pop\n        /* \"#utility.yul\":8452:9108   */\n      pop\n      pop\n      pop\n        /* \"#utility.yul\":8313:9108   */\n      swap3\n      swap2\n      pop\n      pop\n      jump\t// out\n        /* \"#utility.yul\":9114:9725   */\n    tag_82:\n        /* \"#utility.yul\":9329:9332   */\n      0x00\n        /* \"#utility.yul\":9344:9419   */\n      tag_226\n        /* \"#utility.yul\":9415:9418   */\n      dup3\n        /* \"#utility.yul\":9406:9412   */\n      dup7\n        /* \"#utility.yul\":9344:9419   */\n      tag_115\n      jump\t// in\n    tag_226:\n        /* \"#utility.yul\":9444:9446   */\n      0x20\n        /* \"#utility.yul\":9439:9442   */\n      dup3\n        /* \"#utility.yul\":9435:9447   */\n      add\n        /* \"#utility.yul\":9428:9447   */\n      swap2\n      pop\n        /* \"#utility.yul\":9457:9532   */\n      tag_227\n        /* \"#utility.yul\":9528:9531   */\n      dup3\n        /* \"#utility.yul\":9519:9525   */\n      dup6\n        /* \"#utility.yul\":9457:9532   */\n      tag_115\n      jump\t// in\n    tag_227:\n        /* \"#utility.yul\":9557:9559   */\n      0x20\n        /* \"#utility.yul\":9552:9555   */\n      dup3\n        /* \"#utility.yul\":9548:9560   */\n      add\n        /* \"#utility.yul\":9541:9560   */\n      swap2\n      pop\n        /* \"#utility.yul\":9577:9699   */\n      tag_228\n        /* \"#utility.yul\":9695:9698   */\n      dup3\n        /* \"#utility.yul\":9686:9692   */\n      dup5\n        /* \"#utility.yul\":9577:9699   */\n      tag_126\n      jump\t// in\n    tag_228:\n        /* \"#utility.yul\":9570:9699   */\n      swap2\n      pop\n        /* \"#utility.yul\":9716:9719   */\n      dup2\n        /* \"#utility.yul\":9709:9719   */\n      swap1\n      pop\n        /* \"#utility.yul\":9114:9725   */\n      swap5\n      swap4\n      pop\n      pop\n      pop\n      pop\n      jump\t// out\n\n    auxdata: 0xa264697066735822122074ff4a269d7215d4cdd9203a39895fb103cebdefc5be72e6db9a2dc807c9529564736f6c63430008190033\n}\n","bytecode":{"linkReferences":{},"object":"608060405234801561000f575f80fd5b506040516111343803806111348339818101604052810190610031919061027a565b835f806101000a81548173ffffffffffffffffffffffffffffffffffffffff021916908373ffffffffffffffffffffffffffffffffffffffff160217905550806003819055505f6004905083815f01908161008c91906104fe565b5082816001018190555050505050506105cd565b5f604051905090565b5f80fd5b5f80fd5b5f73ffffffffffffffffffffffffffffffffffffffff82169050919050565b5f6100da826100b1565b9050919050565b6100ea816100d0565b81146100f4575f80fd5b50565b5f81519050610105816100e1565b92915050565b5f80fd5b5f80fd5b5f601f19601f8301169050919050565b7f4e487b71000000000000000000000000000000000000000000000000000000005f52604160045260245ffd5b61015982610113565b810181811067ffffffffffffffff8211171561017857610177610123565b5b80604052505050565b5f61018a6100a0565b90506101968282610150565b919050565b5f67ffffffffffffffff8211156101b5576101b4610123565b5b6101be82610113565b9050602081019050919050565b8281835e5f83830152505050565b5f6101eb6101e68461019b565b610181565b9050828152602081018484840111156102075761020661010f565b5b6102128482856101cb565b509392505050565b5f82601f83011261022e5761022d61010b565b5b815161023e8482602086016101d9565b91505092915050565b5f819050919050565b61025981610247565b8114610263575f80fd5b50565b5f8151905061027481610250565b92915050565b5f805f8060808587031215610292576102916100a9565b5b5f61029f878288016100f7565b945050602085015167ffffffffffffffff8111156102c0576102bf6100ad565b5b6102cc8782880161021a565b93505060406102dd87828801610266565b92505060606102ee87828801610266565b91505092959194509250565b5f81519050919050565b7f4e487b71000000000000000000000000000000000000000000000000000000005f52602260045260245ffd5b5f600282049050600182168061034857607f821691505b60208210810361035b5761035a610304565b5b50919050565b5f819050815f5260205f209050919050565b5f6020601f8301049050919050565b5f82821b905092915050565b5f600883026103bd7fffffffffffffffffffffffffffffffffffffffffffffffffffffffffffffffff82610382565b6103c78683610382565b95508019841693508086168417925050509392505050565b5f819050919050565b5f6104026103fd6103f884610247565b6103df565b610247565b9050919050565b5f819050919050565b61041b836103e8565b61042f61042782610409565b84845461038e565b825550505050565b5f90565b610443610437565b61044e818484610412565b505050565b5b81811015610471576104665f8261043b565b600181019050610454565b5050565b601f8211156104b65761048781610361565b61049084610373565b8101602085101561049f578190505b6104b36104ab85610373565b830182610453565b50505b505050565b5f82821c905092915050565b5f6104d65f19846008026104bb565b1980831691505092915050565b5f6104ee83836104c7565b9150826002028217905092915050565b610507826102fa565b67ffffffffffffffff8111156105205761051f610123565b5b61052a8254610331565b610535828285610475565b5f60209050601f831160018114610566575f8415610554578287015190505b61055e85826104e3565b8655506105c5565b601f19841661057486610361565b5f5b8281101561059b57848901518255600182019150602085019450602081019050610576565b868310156105b857848901516105b4601f8916826104c7565b8355505b6001600288020188555050505b505050505050565b610b5a806105da5f395ff3fe60806040526004361061007a575f3560e01c8063937e09b11161004d578063937e09b114610113578063dfbf53ae1461013d578063e97dcb6214610167578063f71d96cb146101715761007a565b8063481c6a751461007e578063565974d3146100a85780635d495aea146100d35780638b5b9ccc146100e9575b5f80fd5b348015610089575f80fd5b506100926101ad565b60405161009f9190610690565b60405180910390f35b3480156100b3575f80fd5b506100bc6101d0565b6040516100ca929190610731565b60405180910390f35b3480156100de575f80fd5b506100e7610267565b005b3480156100f4575f80fd5b506100fd61041a565b60405161010a9190610816565b60405180910390f35b34801561011e575f80fd5b506101276104a5565b6040516101349190610836565b60405180910390f35b348015610148575f80fd5b506101516104ab565b60405161015e9190610690565b60405180910390f35b61016f6104d0565b005b34801561017c575f80fd5b506101976004803603810190610192919061087d565b610540565b6040516101a49190610690565b60405180910390f35b5f8054906101000a900473ffffffffffffffffffffffffffffffffffffffff1681565b6004805f0180546101e0906108d5565b80601f016020809104026020016040519081016040528092919081815260200182805461020c906108d5565b80156102575780601f1061022e57610100808354040283529160200191610257565b820191905f5260205f20905b81548152906001019060200180831161023a57829003601f168201915b5050505050908060010154905082565b5f8054906101000a900473ffffffffffffffffffffffffffffffffffffffff1673ffffffffffffffffffffffffffffffffffffffff163373ffffffffffffffffffffffffffffffffffffffff16146102bd575f80fd5b5f6001805490506102cc61057b565b6102d69190610932565b9050600181815481106102ec576102eb610962565b5b905f5260205f20015f9054906101000a900473ffffffffffffffffffffffffffffffffffffffff1660025f6101000a81548173ffffffffffffffffffffffffffffffffffffffff021916908373ffffffffffffffffffffffffffffffffffffffff16021790555060025f9054906101000a900473ffffffffffffffffffffffffffffffffffffffff1673ffffffffffffffffffffffffffffffffffffffff166108fc4790811502906040515f60405180830381858888f193505050501580156103b7573d5f803e3d5ffd5b505f67ffffffffffffffff8111156103d2576103d161098f565b5b6040519080825280602002602001820160405280156104005781602001602082028036833780820191505090505b50600190805190602001906104169291906105af565b5050565b6060600180548060200260200160405190810160405280929190818152602001828054801561049b57602002820191905f5260205f20905b815f9054906101000a900473ffffffffffffffffffffffffffffffffffffffff1673ffffffffffffffffffffffffffffffffffffffff1681526020019060010190808311610452575b5050505050905090565b60035481565b60025f9054906101000a900473ffffffffffffffffffffffffffffffffffffffff1681565b6003543410156104de575f80fd5b600133908060018154018082558091505060019003905f5260205f20015f9091909190916101000a81548173ffffffffffffffffffffffffffffffffffffffff021916908373ffffffffffffffffffffffffffffffffffffffff160217905550565b6001818154811061054f575f80fd5b905f5260205f20015f915054906101000a900473ffffffffffffffffffffffffffffffffffffffff1681565b5f4442600160405160200161059293929190610aec565b604051602081830303815290604052805190602001205f1c905090565b828054828255905f5260205f20908101928215610625579160200282015b82811115610624578251825f6101000a81548173ffffffffffffffffffffffffffffffffffffffff021916908373ffffffffffffffffffffffffffffffffffffffff160217905550916020019190600101906105cd565b5b5090506106329190610636565b5090565b5b8082111561064d575f815f905550600101610637565b5090565b5f73ffffffffffffffffffffffffffffffffffffffff82169050919050565b5f61067a82610651565b9050919050565b61068a81610670565b82525050565b5f6020820190506106a35f830184610681565b92915050565b5f81519050919050565b5f82825260208201905092915050565b8281835e5f83830152505050565b5f601f19601f8301169050919050565b5f6106eb826106a9565b6106f581856106b3565b93506107058185602086016106c3565b61070e816106d1565b840191505092915050565b5f819050919050565b61072b81610719565b82525050565b5f6040820190508181035f83015261074981856106e1565b90506107586020830184610722565b9392505050565b5f81519050919050565b5f82825260208201905092915050565b5f819050602082019050919050565b61079181610670565b82525050565b5f6107a28383610788565b60208301905092915050565b5f602082019050919050565b5f6107c48261075f565b6107ce8185610769565b93506107d983610779565b805f5b838110156108095781516107f08882610797565b97506107fb836107ae565b9250506001810190506107dc565b5085935050505092915050565b5f6020820190508181035f83015261082e81846107ba565b905092915050565b5f6020820190506108495f830184610722565b92915050565b5f80fd5b61085c81610719565b8114610866575f80fd5b50565b5f8135905061087781610853565b92915050565b5f602082840312156108925761089161084f565b5b5f61089f84828501610869565b91505092915050565b7f4e487b71000000000000000000000000000000000000000000000000000000005f52602260045260245ffd5b5f60028204905060018216806108ec57607f821691505b6020821081036108ff576108fe6108a8565b5b50919050565b7f4e487b71000000000000000000000000000000000000000000000000000000005f52601260045260245ffd5b5f61093c82610719565b915061094783610719565b92508261095757610956610905565b5b828206905092915050565b7f4e487b71000000000000000000000000000000000000000000000000000000005f52603260045260245ffd5b7f4e487b71000000000000000000000000000000000000000000000000000000005f52604160045260245ffd5b5f819050919050565b6109d66109d182610719565b6109bc565b82525050565b5f81549050919050565b5f81905092915050565b5f819050815f5260205f209050919050565b610a0b81610670565b82525050565b5f610a1c8383610a02565b60208301905092915050565b5f815f1c9050919050565b5f73ffffffffffffffffffffffffffffffffffffffff82169050919050565b5f610a64610a5f83610a28565b610a33565b9050919050565b5f610a768254610a52565b9050919050565b5f600182019050919050565b5f610a93826109dc565b610a9d81856109e6565b9350610aa8836109f0565b805f5b83811015610adf57610abc82610a6b565b610ac68882610a11565b9750610ad183610a7d565b925050600181019050610aab565b5085935050505092915050565b5f610af782866109c5565b602082019150610b0782856109c5565b602082019150610b178284610a89565b915081905094935050505056fea264697066735822122074ff4a269d7215d4cdd9203a39895fb103cebdefc5be72e6db9a2dc807c9529564736f6c63430008190033","opcodes":"PUSH1 0x80 PUSH1 0x40 MSTORE CALLVALUE DUP1 ISZERO PUSH2 0xF JUMPI PUSH0 DUP1 REVERT JUMPDEST POP PUSH1 0x40 MLOAD PUSH2 0x1134 CODESIZE SUB DUP1 PUSH2 0x1134 DUP4 CODECOPY DUP2 DUP2 ADD PUSH1 0x40 MSTORE DUP2 ADD SWAP1 PUSH2 0x31 SWAP2 SWAP1 PUSH2 0x27A JUMP JUMPDEST DUP4 PUSH0 DUP1 PUSH2 0x100 EXP DUP2 SLOAD DUP2 PUSH20 0xFFFFFFFFFFFFFFFFFFFFFFFFFFFFFFFFFFFFFFFF MUL NOT AND SWAP1 DUP4 PUSH20 0xFFFFFFFFFFFFFFFFFFFFFFFFFFFFFFFFFFFFFFFF AND MUL OR SWAP1 SSTORE POP DUP1 PUSH1 0x3 DUP2 SWAP1 SSTORE POP PUSH0 PUSH1 0x4 SWAP1 POP DUP4 DUP2 PUSH0 ADD SWAP1 DUP2 PUSH2 0x8C SWAP2 SWAP1 PUSH2 0x4FE JUMP JUMPDEST POP DUP3 DUP2 PUSH1 0x1 ADD DUP2 SWAP1 SSTORE POP POP POP POP POP POP PUSH2 0x5CD JUMP JUMPDEST PUSH0 PUSH1 0x40 MLOAD SWAP1 POP SWAP1 JUMP JUMPDEST PUSH0 DUP1 REVERT JUMPDEST PUSH0 DUP1 REVERT JUMPDEST PUSH0 PUSH20 0xFFFFFFFFFFFFFFFFFFFFFFFFFFFFFFFFFFFFFFFF DUP3 AND SWAP1 POP SWAP2 SWAP1 POP JUMP JUMPDEST PUSH0 PUSH2 0xDA DUP3 PUSH2 0xB1 JUMP JUMPDEST SWAP1 POP SWAP2 SWAP1 POP JUMP JUMPDEST PUSH2 0xEA DUP2 PUSH2 0xD0 JUMP JUMPDEST DUP2 EQ PUSH2 0xF4 JUMPI PUSH0 DUP1 REVERT JUMPDEST POP JUMP JUMPDEST PUSH0 DUP2 MLOAD SWAP1 POP PUSH2 0x105 DUP2 PUSH2 0xE1 JUMP JUMPDEST SWAP3 SWAP2 POP POP JUMP JUMPDEST PUSH0 DUP1 REVERT JUMPDEST PUSH0 DUP1 REVERT JUMPDEST PUSH0 PUSH1 0x1F NOT PUSH1 0x1F DUP4 ADD AND SWAP1 POP SWAP2 SWAP1 POP JUMP JUMPDEST PUSH32 0x4E487B7100000000000000000000000000000000000000000000000000000000 PUSH0 MSTORE PUSH1 0x41 PUSH1 0x4 MSTORE PUSH1 0x24 PUSH0 REVERT JUMPDEST PUSH2 0x159 DUP3 PUSH2 0x113 JUMP JUMPDEST DUP2 ADD DUP2 DUP2 LT PUSH8 0xFFFFFFFFFFFFFFFF DUP3 GT OR ISZERO PUSH2 0x178 JUMPI PUSH2 0x177 PUSH2 0x123 JUMP JUMPDEST JUMPDEST DUP1 PUSH1 0x40 MSTORE POP POP POP JUMP JUMPDEST PUSH0 PUSH2 0x18A PUSH2 0xA0 JUMP JUMPDEST SWAP1 POP PUSH2 0x196 DUP3 DUP3 PUSH2 0x150 JUMP JUMPDEST SWAP2 SWAP1 POP JUMP JUMPDEST PUSH0 PUSH8 0xFFFFFFFFFFFFFFFF DUP3 GT ISZERO PUSH2 0x1B5 JUMPI PUSH2 0x1B4 PUSH2 0x123 JUMP JUMPDEST JUMPDEST PUSH2 0x1BE DUP3 PUSH2 0x113 JUMP JUMPDEST SWAP1 POP PUSH1 0x20 DUP2 ADD SWAP1 POP SWAP2 SWAP1 POP JUMP JUMPDEST DUP3 DUP2 DUP4 MCOPY PUSH0 DUP4 DUP4 ADD MSTORE POP POP POP JUMP JUMPDEST PUSH0 PUSH2 0x1EB PUSH2 0x1E6 DUP5 PUSH2 0x19B JUMP JUMPDEST PUSH2 0x181 JUMP JUMPDEST SWAP1 POP DUP3 DUP2 MSTORE PUSH1 0x20 DUP2 ADD DUP5 DUP5 DUP5 ADD GT ISZERO PUSH2 0x207 JUMPI PUSH2 0x206 PUSH2 0x10F JUMP JUMPDEST JUMPDEST PUSH2 0x212 DUP5 DUP3 DUP6 PUSH2 0x1CB JUMP JUMPDEST POP SWAP4 SWAP3 POP POP POP JUMP JUMPDEST PUSH0 DUP3 PUSH1 0x1F DUP4 ADD SLT PUSH2 0x22E JUMPI PUSH2 0x22D PUSH2 0x10B JUMP JUMPDEST JUMPDEST DUP2 MLOAD PUSH2 0x23E DUP5 DUP3 PUSH1 0x20 DUP7 ADD PUSH2 0x1D9 JUMP JUMPDEST SWAP2 POP POP SWAP3 SWAP2 POP POP JUMP JUMPDEST PUSH0 DUP2 SWAP1 POP SWAP2 SWAP1 POP JUMP JUMPDEST PUSH2 0x259 DUP2 PUSH2 0x247 JUMP JUMPDEST DUP2 EQ PUSH2 0x263 JUMPI PUSH0 DUP1 REVERT JUMPDEST POP JUMP JUMPDEST PUSH0 DUP2 MLOAD SWAP1 POP PUSH2 0x274 DUP2 PUSH2 0x250 JUMP JUMPDEST SWAP3 SWAP2 POP POP JUMP JUMPDEST PUSH0 DUP1 PUSH0 DUP1 PUSH1 0x80 DUP6 DUP8 SUB SLT ISZERO PUSH2 0x292 JUMPI PUSH2 0x291 PUSH2 0xA9 JUMP JUMPDEST JUMPDEST PUSH0 PUSH2 0x29F DUP8 DUP3 DUP9 ADD PUSH2 0xF7 JUMP JUMPDEST SWAP5 POP POP PUSH1 0x20 DUP6 ADD MLOAD PUSH8 0xFFFFFFFFFFFFFFFF DUP2 GT ISZERO PUSH2 0x2C0 JUMPI PUSH2 0x2BF PUSH2 0xAD JUMP JUMPDEST JUMPDEST PUSH2 0x2CC DUP8 DUP3 DUP9 ADD PUSH2 0x21A JUMP JUMPDEST SWAP4 POP POP PUSH1 0x40 PUSH2 0x2DD DUP8 DUP3 DUP9 ADD PUSH2 0x266 JUMP JUMPDEST SWAP3 POP POP PUSH1 0x60 PUSH2 0x2EE DUP8 DUP3 DUP9 ADD PUSH2 0x266 JUMP JUMPDEST SWAP2 POP POP SWAP3 SWAP6 SWAP2 SWAP5 POP SWAP3 POP JUMP JUMPDEST PUSH0 DUP2 MLOAD SWAP1 POP SWAP2 SWAP1 POP JUMP JUMPDEST PUSH32 0x4E487B7100000000000000000000000000000000000000000000000000000000 PUSH0 MSTORE PUSH1 0x22 PUSH1 0x4 MSTORE PUSH1 0x24 PUSH0 REVERT JUMPDEST PUSH0 PUSH1 0x2 DUP3 DIV SWAP1 POP PUSH1 0x1 DUP3 AND DUP1 PUSH2 0x348 JUMPI PUSH1 0x7F DUP3 AND SWAP2 POP JUMPDEST PUSH1 0x20 DUP3 LT DUP2 SUB PUSH2 0x35B JUMPI PUSH2 0x35A PUSH2 0x304 JUMP JUMPDEST JUMPDEST POP SWAP2 SWAP1 POP JUMP JUMPDEST PUSH0 DUP2 SWAP1 POP DUP2 PUSH0 MSTORE PUSH1 0x20 PUSH0 KECCAK256 SWAP1 POP SWAP2 SWAP1 POP JUMP JUMPDEST PUSH0 PUSH1 0x20 PUSH1 0x1F DUP4 ADD DIV SWAP1 POP SWAP2 SWAP1 POP JUMP JUMPDEST PUSH0 DUP3 DUP3 SHL SWAP1 POP SWAP3 SWAP2 POP POP JUMP JUMPDEST PUSH0 PUSH1 0x8 DUP4 MUL PUSH2 0x3BD PUSH32 0xFFFFFFFFFFFFFFFFFFFFFFFFFFFFFFFFFFFFFFFFFFFFFFFFFFFFFFFFFFFFFFFF DUP3 PUSH2 0x382 JUMP JUMPDEST PUSH2 0x3C7 DUP7 DUP4 PUSH2 0x382 JUMP JUMPDEST SWAP6 POP DUP1 NOT DUP5 AND SWAP4 POP DUP1 DUP7 AND DUP5 OR SWAP3 POP POP POP SWAP4 SWAP3 POP POP POP JUMP JUMPDEST PUSH0 DUP2 SWAP1 POP SWAP2 SWAP1 POP JUMP JUMPDEST PUSH0 PUSH2 0x402 PUSH2 0x3FD PUSH2 0x3F8 DUP5 PUSH2 0x247 JUMP JUMPDEST PUSH2 0x3DF JUMP JUMPDEST PUSH2 0x247 JUMP JUMPDEST SWAP1 POP SWAP2 SWAP1 POP JUMP JUMPDEST PUSH0 DUP2 SWAP1 POP SWAP2 SWAP1 POP JUMP JUMPDEST PUSH2 0x41B DUP4 PUSH2 0x3E8 JUMP JUMPDEST PUSH2 0x42F PUSH2 0x427 DUP3 PUSH2 0x409 JUMP JUMPDEST DUP5 DUP5 SLOAD PUSH2 0x38E JUMP JUMPDEST DUP3 SSTORE POP POP POP POP JUMP JUMPDEST PUSH0 SWAP1 JUMP JUMPDEST PUSH2 0x443 PUSH2 0x437 JUMP JUMPDEST PUSH2 0x44E DUP2 DUP5 DUP5 PUSH2 0x412 JUMP JUMPDEST POP POP POP JUMP JUMPDEST JUMPDEST DUP2 DUP2 LT ISZERO PUSH2 0x471 JUMPI PUSH2 0x466 PUSH0 DUP3 PUSH2 0x43B JUMP JUMPDEST PUSH1 0x1 DUP2 ADD SWAP1 POP PUSH2 0x454 JUMP JUMPDEST POP POP JUMP JUMPDEST PUSH1 0x1F DUP3 GT ISZERO PUSH2 0x4B6 JUMPI PUSH2 0x487 DUP2 PUSH2 0x361 JUMP JUMPDEST PUSH2 0x490 DUP5 PUSH2 0x373 JUMP JUMPDEST DUP2 ADD PUSH1 0x20 DUP6 LT ISZERO PUSH2 0x49F JUMPI DUP2 SWAP1 POP JUMPDEST PUSH2 0x4B3 PUSH2 0x4AB DUP6 PUSH2 0x373 JUMP JUMPDEST DUP4 ADD DUP3 PUSH2 0x453 JUMP JUMPDEST POP POP JUMPDEST POP POP POP JUMP JUMPDEST PUSH0 DUP3 DUP3 SHR SWAP1 POP SWAP3 SWAP2 POP POP JUMP JUMPDEST PUSH0 PUSH2 0x4D6 PUSH0 NOT DUP5 PUSH1 0x8 MUL PUSH2 0x4BB JUMP JUMPDEST NOT DUP1 DUP4 AND SWAP2 POP POP SWAP3 SWAP2 POP POP JUMP JUMPDEST PUSH0 PUSH2 0x4EE DUP4 DUP4 PUSH2 0x4C7 JUMP JUMPDEST SWAP2 POP DUP3 PUSH1 0x2 MUL DUP3 OR SWAP1 POP SWAP3 SWAP2 POP POP JUMP JUMPDEST PUSH2 0x507 DUP3 PUSH2 0x2FA JUMP JUMPDEST PUSH8 0xFFFFFFFFFFFFFFFF DUP2 GT ISZERO PUSH2 0x520 JUMPI PUSH2 0x51F PUSH2 0x123 JUMP JUMPDEST JUMPDEST PUSH2 0x52A DUP3 SLOAD PUSH2 0x331 JUMP JUMPDEST PUSH2 0x535 DUP3 DUP3 DUP6 PUSH2 0x475 JUMP JUMPDEST PUSH0 PUSH1 0x20 SWAP1 POP PUSH1 0x1F DUP4 GT PUSH1 0x1 DUP2 EQ PUSH2 0x566 JUMPI PUSH0 DUP5 ISZERO PUSH2 0x554 JUMPI DUP3 DUP8 ADD MLOAD SWAP1 POP JUMPDEST PUSH2 0x55E DUP6 DUP3 PUSH2 0x4E3 JUMP JUMPDEST DUP7 SSTORE POP PUSH2 0x5C5 JUMP JUMPDEST PUSH1 0x1F NOT DUP5 AND PUSH2 0x574 DUP7 PUSH2 0x361 JUMP JUMPDEST PUSH0 JUMPDEST DUP3 DUP2 LT ISZERO PUSH2 0x59B JUMPI DUP5 DUP10 ADD MLOAD DUP3 SSTORE PUSH1 0x1 DUP3 ADD SWAP2 POP PUSH1 0x20 DUP6 ADD SWAP5 POP PUSH1 0x20 DUP2 ADD SWAP1 POP PUSH2 0x576 JUMP JUMPDEST DUP7 DUP4 LT ISZERO PUSH2 0x5B8 JUMPI DUP5 DUP10 ADD MLOAD PUSH2 0x5B4 PUSH1 0x1F DUP10 AND DUP3 PUSH2 0x4C7 JUMP JUMPDEST DUP4 SSTORE POP JUMPDEST PUSH1 0x1 PUSH1 0x2 DUP9 MUL ADD DUP9 SSTORE POP POP POP JUMPDEST POP POP POP POP POP POP JUMP JUMPDEST PUSH2 0xB5A DUP1 PUSH2 0x5DA PUSH0 CODECOPY PUSH0 RETURN INVALID PUSH1 0x80 PUSH1 0x40 MSTORE PUSH1 0x4 CALLDATASIZE LT PUSH2 0x7A JUMPI PUSH0 CALLDATALOAD PUSH1 0xE0 SHR DUP1 PUSH4 0x937E09B1 GT PUSH2 0x4D JUMPI DUP1 PUSH4 0x937E09B1 EQ PUSH2 0x113 JUMPI DUP1 PUSH4 0xDFBF53AE EQ PUSH2 0x13D JUMPI DUP1 PUSH4 0xE97DCB62 EQ PUSH2 0x167 JUMPI DUP1 PUSH4 0xF71D96CB EQ PUSH2 0x171 JUMPI PUSH2 0x7A JUMP JUMPDEST DUP1 PUSH4 0x481C6A75 EQ PUSH2 0x7E JUMPI DUP1 PUSH4 0x565974D3 EQ PUSH2 0xA8 JUMPI DUP1 PUSH4 0x5D495AEA EQ PUSH2 0xD3 JUMPI DUP1 PUSH4 0x8B5B9CCC EQ PUSH2 0xE9 JUMPI JUMPDEST PUSH0 DUP1 REVERT JUMPDEST CALLVALUE DUP1 ISZERO PUSH2 0x89 JUMPI PUSH0 DUP1 REVERT JUMPDEST POP PUSH2 0x92 PUSH2 0x1AD JUMP JUMPDEST PUSH1 0x40 MLOAD PUSH2 0x9F SWAP2 SWAP1 PUSH2 0x690 JUMP JUMPDEST PUSH1 0x40 MLOAD DUP1 SWAP2 SUB SWAP1 RETURN JUMPDEST CALLVALUE DUP1 ISZERO PUSH2 0xB3 JUMPI PUSH0 DUP1 REVERT JUMPDEST POP PUSH2 0xBC PUSH2 0x1D0 JUMP JUMPDEST PUSH1 0x40 MLOAD PUSH2 0xCA SWAP3 SWAP2 SWAP1 PUSH2 0x731 JUMP JUMPDEST PUSH1 0x40 MLOAD DUP1 SWAP2 SUB SWAP1 RETURN JUMPDEST CALLVALUE DUP1 ISZERO PUSH2 0xDE JUMPI PUSH0 DUP1 REVERT JUMPDEST POP PUSH2 0xE7 PUSH2 0x267 JUMP JUMPDEST STOP JUMPDEST CALLVALUE DUP1 ISZERO PUSH2 0xF4 JUMPI PUSH0 DUP1 REVERT JUMPDEST POP PUSH2 0xFD PUSH2 0x41A JUMP JUMPDEST PUSH1 0x40 MLOAD PUSH2 0x10A SWAP2 SWAP1 PUSH2 0x816 JUMP JUMPDEST PUSH1 0x40 MLOAD DUP1 SWAP2 SUB SWAP1 RETURN JUMPDEST CALLVALUE DUP1 ISZERO PUSH2 0x11E JUMPI PUSH0 DUP1 REVERT JUMPDEST POP PUSH2 0x127 PUSH2 0x4A5 JUMP JUMPDEST PUSH1 0x40 MLOAD PUSH2 0x134 SWAP2 SWAP1 PUSH2 0x836 JUMP JUMPDEST PUSH1 0x40 MLOAD DUP1 SWAP2 SUB SWAP1 RETURN JUMPDEST CALLVALUE DUP1 ISZERO PUSH2 0x148 JUMPI PUSH0 DUP1 REVERT JUMPDEST POP PUSH2 0x151 PUSH2 0x4AB JUMP JUMPDEST PUSH1 0x40 MLOAD PUSH2 0x15E SWAP2 SWAP1 PUSH2 0x690 JUMP JUMPDEST PUSH1 0x40 MLOAD DUP1 SWAP2 SUB SWAP1 RETURN JUMPDEST PUSH2 0x16F PUSH2 0x4D0 JUMP JUMPDEST STOP JUMPDEST CALLVALUE DUP1 ISZERO PUSH2 0x17C JUMPI PUSH0 DUP1 REVERT JUMPDEST POP PUSH2 0x197 PUSH1 0x4 DUP1 CALLDATASIZE SUB DUP2 ADD SWAP1 PUSH2 0x192 SWAP2 SWAP1 PUSH2 0x87D JUMP JUMPDEST PUSH2 0x540 JUMP JUMPDEST PUSH1 0x40 MLOAD PUSH2 0x1A4 SWAP2 SWAP1 PUSH2 0x690 JUMP JUMPDEST PUSH1 0x40 MLOAD DUP1 SWAP2 SUB SWAP1 RETURN JUMPDEST PUSH0 DUP1 SLOAD SWAP1 PUSH2 0x100 EXP SWAP1 DIV PUSH20 0xFFFFFFFFFFFFFFFFFFFFFFFFFFFFFFFFFFFFFFFF AND DUP2 JUMP JUMPDEST PUSH1 0x4 DUP1 PUSH0 ADD DUP1 SLOAD PUSH2 0x1E0 SWAP1 PUSH2 0x8D5 JUMP JUMPDEST DUP1 PUSH1 0x1F ADD PUSH1 0x20 DUP1 SWAP2 DIV MUL PUSH1 0x20 ADD PUSH1 0x40 MLOAD SWAP1 DUP2 ADD PUSH1 0x40 MSTORE DUP1 SWAP3 SWAP2 SWAP1 DUP2 DUP2 MSTORE PUSH1 0x20 ADD DUP3 DUP1 SLOAD PUSH2 0x20C SWAP1 PUSH2 0x8D5 JUMP JUMPDEST DUP1 ISZERO PUSH2 0x257 JUMPI DUP1 PUSH1 0x1F LT PUSH2 0x22E JUMPI PUSH2 0x100 DUP1 DUP4 SLOAD DIV MUL DUP4 MSTORE SWAP2 PUSH1 0x20 ADD SWAP2 PUSH2 0x257 JUMP JUMPDEST DUP3 ADD SWAP2 SWAP1 PUSH0 MSTORE PUSH1 0x20 PUSH0 KECCAK256 SWAP1 JUMPDEST DUP2 SLOAD DUP2 MSTORE SWAP1 PUSH1 0x1 ADD SWAP1 PUSH1 0x20 ADD DUP1 DUP4 GT PUSH2 0x23A JUMPI DUP3 SWAP1 SUB PUSH1 0x1F AND DUP3 ADD SWAP2 JUMPDEST POP POP POP POP POP SWAP1 DUP1 PUSH1 0x1 ADD SLOAD SWAP1 POP DUP3 JUMP JUMPDEST PUSH0 DUP1 SLOAD SWAP1 PUSH2 0x100 EXP SWAP1 DIV PUSH20 0xFFFFFFFFFFFFFFFFFFFFFFFFFFFFFFFFFFFFFFFF AND PUSH20 0xFFFFFFFFFFFFFFFFFFFFFFFFFFFFFFFFFFFFFFFF AND CALLER PUSH20 0xFFFFFFFFFFFFFFFFFFFFFFFFFFFFFFFFFFFFFFFF AND EQ PUSH2 0x2BD JUMPI PUSH0 DUP1 REVERT JUMPDEST PUSH0 PUSH1 0x1 DUP1 SLOAD SWAP1 POP PUSH2 0x2CC PUSH2 0x57B JUMP JUMPDEST PUSH2 0x2D6 SWAP2 SWAP1 PUSH2 0x932 JUMP JUMPDEST SWAP1 POP PUSH1 0x1 DUP2 DUP2 SLOAD DUP2 LT PUSH2 0x2EC JUMPI PUSH2 0x2EB PUSH2 0x962 JUMP JUMPDEST JUMPDEST SWAP1 PUSH0 MSTORE PUSH1 0x20 PUSH0 KECCAK256 ADD PUSH0 SWAP1 SLOAD SWAP1 PUSH2 0x100 EXP SWAP1 DIV PUSH20 0xFFFFFFFFFFFFFFFFFFFFFFFFFFFFFFFFFFFFFFFF AND PUSH1 0x2 PUSH0 PUSH2 0x100 EXP DUP2 SLOAD DUP2 PUSH20 0xFFFFFFFFFFFFFFFFFFFFFFFFFFFFFFFFFFFFFFFF MUL NOT AND SWAP1 DUP4 PUSH20 0xFFFFFFFFFFFFFFFFFFFFFFFFFFFFFFFFFFFFFFFF AND MUL OR SWAP1 SSTORE POP PUSH1 0x2 PUSH0 SWAP1 SLOAD SWAP1 PUSH2 0x100 EXP SWAP1 DIV PUSH20 0xFFFFFFFFFFFFFFFFFFFFFFFFFFFFFFFFFFFFFFFF AND PUSH20 0xFFFFFFFFFFFFFFFFFFFFFFFFFFFFFFFFFFFFFFFF AND PUSH2 0x8FC SELFBALANCE SWAP1 DUP2 ISZERO MUL SWAP1 PUSH1 0x40 MLOAD PUSH0 PUSH1 0x40 MLOAD DUP1 DUP4 SUB DUP2 DUP6 DUP9 DUP9 CALL SWAP4 POP POP POP POP ISZERO DUP1 ISZERO PUSH2 0x3B7 JUMPI RETURNDATASIZE PUSH0 DUP1 RETURNDATACOPY RETURNDATASIZE PUSH0 REVERT JUMPDEST POP PUSH0 PUSH8 0xFFFFFFFFFFFFFFFF DUP2 GT ISZERO PUSH2 0x3D2 JUMPI PUSH2 0x3D1 PUSH2 0x98F JUMP JUMPDEST JUMPDEST PUSH1 0x40 MLOAD SWAP1 DUP1 DUP3 MSTORE DUP1 PUSH1 0x20 MUL PUSH1 0x20 ADD DUP3 ADD PUSH1 0x40 MSTORE DUP1 ISZERO PUSH2 0x400 JUMPI DUP2 PUSH1 0x20 ADD PUSH1 0x20 DUP3 MUL DUP1 CALLDATASIZE DUP4 CALLDATACOPY DUP1 DUP3 ADD SWAP2 POP POP SWAP1 POP JUMPDEST POP PUSH1 0x1 SWAP1 DUP1 MLOAD SWAP1 PUSH1 0x20 ADD SWAP1 PUSH2 0x416 SWAP3 SWAP2 SWAP1 PUSH2 0x5AF JUMP JUMPDEST POP POP JUMP JUMPDEST PUSH1 0x60 PUSH1 0x1 DUP1 SLOAD DUP1 PUSH1 0x20 MUL PUSH1 0x20 ADD PUSH1 0x40 MLOAD SWAP1 DUP2 ADD PUSH1 0x40 MSTORE DUP1 SWAP3 SWAP2 SWAP1 DUP2 DUP2 MSTORE PUSH1 0x20 ADD DUP3 DUP1 SLOAD DUP1 ISZERO PUSH2 0x49B JUMPI PUSH1 0x20 MUL DUP3 ADD SWAP2 SWAP1 PUSH0 MSTORE PUSH1 0x20 PUSH0 KECCAK256 SWAP1 JUMPDEST DUP2 PUSH0 SWAP1 SLOAD SWAP1 PUSH2 0x100 EXP SWAP1 DIV PUSH20 0xFFFFFFFFFFFFFFFFFFFFFFFFFFFFFFFFFFFFFFFF AND PUSH20 0xFFFFFFFFFFFFFFFFFFFFFFFFFFFFFFFFFFFFFFFF AND DUP2 MSTORE PUSH1 0x20 ADD SWAP1 PUSH1 0x1 ADD SWAP1 DUP1 DUP4 GT PUSH2 0x452 JUMPI JUMPDEST POP POP POP POP POP SWAP1 POP SWAP1 JUMP JUMPDEST PUSH1 0x3 SLOAD DUP2 JUMP JUMPDEST PUSH1 0x2 PUSH0 SWAP1 SLOAD SWAP1 PUSH2 0x100 EXP SWAP1 DIV PUSH20 0xFFFFFFFFFFFFFFFFFFFFFFFFFFFFFFFFFFFFFFFF AND DUP2 JUMP JUMPDEST PUSH1 0x3 SLOAD CALLVALUE LT ISZERO PUSH2 0x4DE JUMPI PUSH0 DUP1 REVERT JUMPDEST PUSH1 0x1 CALLER SWAP1 DUP1 PUSH1 0x1 DUP2 SLOAD ADD DUP1 DUP3 SSTORE DUP1 SWAP2 POP POP PUSH1 0x1 SWAP1 SUB SWAP1 PUSH0 MSTORE PUSH1 0x20 PUSH0 KECCAK256 ADD PUSH0 SWAP1 SWAP2 SWAP1 SWAP2 SWAP1 SWAP2 PUSH2 0x100 EXP DUP2 SLOAD DUP2 PUSH20 0xFFFFFFFFFFFFFFFFFFFFFFFFFFFFFFFFFFFFFFFF MUL NOT AND SWAP1 DUP4 PUSH20 0xFFFFFFFFFFFFFFFFFFFFFFFFFFFFFFFFFFFFFFFF AND MUL OR SWAP1 SSTORE POP JUMP JUMPDEST PUSH1 0x1 DUP2 DUP2 SLOAD DUP2 LT PUSH2 0x54F JUMPI PUSH0 DUP1 REVERT JUMPDEST SWAP1 PUSH0 MSTORE PUSH1 0x20 PUSH0 KECCAK256 ADD PUSH0 SWAP2 POP SLOAD SWAP1 PUSH2 0x100 EXP SWAP1 DIV PUSH20 0xFFFFFFFFFFFFFFFFFFFFFFFFFFFFFFFFFFFFFFFF AND DUP2 JUMP JUMPDEST PUSH0 PREVRANDAO TIMESTAMP PUSH1 0x1 PUSH1 0x40 MLOAD PUSH1 0x20 ADD PUSH2 0x592 SWAP4 SWAP3 SWAP2 SWAP1 PUSH2 0xAEC JUMP JUMPDEST PUSH1 0x40 MLOAD PUSH1 0x20 DUP2 DUP4 SUB SUB DUP2 MSTORE SWAP1 PUSH1 0x40 MSTORE DUP1 MLOAD SWAP1 PUSH1 0x20 ADD KECCAK256 PUSH0 SHR SWAP1 POP SWAP1 JUMP JUMPDEST DUP3 DUP1 SLOAD DUP3 DUP3 SSTORE SWAP1 PUSH0 MSTORE PUSH1 0x20 PUSH0 KECCAK256 SWAP1 DUP2 ADD SWAP3 DUP3 ISZERO PUSH2 0x625 JUMPI SWAP2 PUSH1 0x20 MUL DUP3 ADD JUMPDEST DUP3 DUP2 GT ISZERO PUSH2 0x624 JUMPI DUP3 MLOAD DUP3 PUSH0 PUSH2 0x100 EXP DUP2 SLOAD DUP2 PUSH20 0xFFFFFFFFFFFFFFFFFFFFFFFFFFFFFFFFFFFFFFFF MUL NOT AND SWAP1 DUP4 PUSH20 0xFFFFFFFFFFFFFFFFFFFFFFFFFFFFFFFFFFFFFFFF AND MUL OR SWAP1 SSTORE POP SWAP2 PUSH1 0x20 ADD SWAP2 SWAP1 PUSH1 0x1 ADD SWAP1 PUSH2 0x5CD JUMP JUMPDEST JUMPDEST POP SWAP1 POP PUSH2 0x632 SWAP2 SWAP1 PUSH2 0x636 JUMP JUMPDEST POP SWAP1 JUMP JUMPDEST JUMPDEST DUP1 DUP3 GT ISZERO PUSH2 0x64D JUMPI PUSH0 DUP2 PUSH0 SWAP1 SSTORE POP PUSH1 0x1 ADD PUSH2 0x637 JUMP JUMPDEST POP SWAP1 JUMP JUMPDEST PUSH0 PUSH20 0xFFFFFFFFFFFFFFFFFFFFFFFFFFFFFFFFFFFFFFFF DUP3 AND SWAP1 POP SWAP2 SWAP1 POP JUMP JUMPDEST PUSH0 PUSH2 0x67A DUP3 PUSH2 0x651 JUMP JUMPDEST SWAP1 POP SWAP2 SWAP1 POP JUMP JUMPDEST PUSH2 0x68A DUP2 PUSH2 0x670 JUMP JUMPDEST DUP3 MSTORE POP POP JUMP JUMPDEST PUSH0 PUSH1 0x20 DUP3 ADD SWAP1 POP PUSH2 0x6A3 PUSH0 DUP4 ADD DUP5 PUSH2 0x681 JUMP JUMPDEST SWAP3 SWAP2 POP POP JUMP JUMPDEST PUSH0 DUP2 MLOAD SWAP1 POP SWAP2 SWAP1 POP JUMP JUMPDEST PUSH0 DUP3 DUP3 MSTORE PUSH1 0x20 DUP3 ADD SWAP1 POP SWAP3 SWAP2 POP POP JUMP JUMPDEST DUP3 DUP2 DUP4 MCOPY PUSH0 DUP4 DUP4 ADD MSTORE POP POP POP JUMP JUMPDEST PUSH0 PUSH1 0x1F NOT PUSH1 0x1F DUP4 ADD AND SWAP1 POP SWAP2 SWAP1 POP JUMP JUMPDEST PUSH0 PUSH2 0x6EB DUP3 PUSH2 0x6A9 JUMP JUMPDEST PUSH2 0x6F5 DUP2 DUP6 PUSH2 0x6B3 JUMP JUMPDEST SWAP4 POP PUSH2 0x705 DUP2 DUP6 PUSH1 0x20 DUP7 ADD PUSH2 0x6C3 JUMP JUMPDEST PUSH2 0x70E DUP2 PUSH2 0x6D1 JUMP JUMPDEST DUP5 ADD SWAP2 POP POP SWAP3 SWAP2 POP POP JUMP JUMPDEST PUSH0 DUP2 SWAP1 POP SWAP2 SWAP1 POP JUMP JUMPDEST PUSH2 0x72B DUP2 PUSH2 0x719 JUMP JUMPDEST DUP3 MSTORE POP POP JUMP JUMPDEST PUSH0 PUSH1 0x40 DUP3 ADD SWAP1 POP DUP2 DUP2 SUB PUSH0 DUP4 ADD MSTORE PUSH2 0x749 DUP2 DUP6 PUSH2 0x6E1 JUMP JUMPDEST SWAP1 POP PUSH2 0x758 PUSH1 0x20 DUP4 ADD DUP5 PUSH2 0x722 JUMP JUMPDEST SWAP4 SWAP3 POP POP POP JUMP JUMPDEST PUSH0 DUP2 MLOAD SWAP1 POP SWAP2 SWAP1 POP JUMP JUMPDEST PUSH0 DUP3 DUP3 MSTORE PUSH1 0x20 DUP3 ADD SWAP1 POP SWAP3 SWAP2 POP POP JUMP JUMPDEST PUSH0 DUP2 SWAP1 POP PUSH1 0x20 DUP3 ADD SWAP1 POP SWAP2 SWAP1 POP JUMP JUMPDEST PUSH2 0x791 DUP2 PUSH2 0x670 JUMP JUMPDEST DUP3 MSTORE POP POP JUMP JUMPDEST PUSH0 PUSH2 0x7A2 DUP4 DUP4 PUSH2 0x788 JUMP JUMPDEST PUSH1 0x20 DUP4 ADD SWAP1 POP SWAP3 SWAP2 POP POP JUMP JUMPDEST PUSH0 PUSH1 0x20 DUP3 ADD SWAP1 POP SWAP2 SWAP1 POP JUMP JUMPDEST PUSH0 PUSH2 0x7C4 DUP3 PUSH2 0x75F JUMP JUMPDEST PUSH2 0x7CE DUP2 DUP6 PUSH2 0x769 JUMP JUMPDEST SWAP4 POP PUSH2 0x7D9 DUP4 PUSH2 0x779 JUMP JUMPDEST DUP1 PUSH0 JUMPDEST DUP4 DUP2 LT ISZERO PUSH2 0x809 JUMPI DUP2 MLOAD PUSH2 0x7F0 DUP9 DUP3 PUSH2 0x797 JUMP JUMPDEST SWAP8 POP PUSH2 0x7FB DUP4 PUSH2 0x7AE JUMP JUMPDEST SWAP3 POP POP PUSH1 0x1 DUP2 ADD SWAP1 POP PUSH2 0x7DC JUMP JUMPDEST POP DUP6 SWAP4 POP POP POP POP SWAP3 SWAP2 POP POP JUMP JUMPDEST PUSH0 PUSH1 0x20 DUP3 ADD SWAP1 POP DUP2 DUP2 SUB PUSH0 DUP4 ADD MSTORE PUSH2 0x82E DUP2 DUP5 PUSH2 0x7BA JUMP JUMPDEST SWAP1 POP SWAP3 SWAP2 POP POP JUMP JUMPDEST PUSH0 PUSH1 0x20 DUP3 ADD SWAP1 POP PUSH2 0x849 PUSH0 DUP4 ADD DUP5 PUSH2 0x722 JUMP JUMPDEST SWAP3 SWAP2 POP POP JUMP JUMPDEST PUSH0 DUP1 REVERT JUMPDEST PUSH2 0x85C DUP2 PUSH2 0x719 JUMP JUMPDEST DUP2 EQ PUSH2 0x866 JUMPI PUSH0 DUP1 REVERT JUMPDEST POP JUMP JUMPDEST PUSH0 DUP2 CALLDATALOAD SWAP1 POP PUSH2 0x877 DUP2 PUSH2 0x853 JUMP JUMPDEST SWAP3 SWAP2 POP POP JUMP JUMPDEST PUSH0 PUSH1 0x20 DUP3 DUP5 SUB SLT ISZERO PUSH2 0x892 JUMPI PUSH2 0x891 PUSH2 0x84F JUMP JUMPDEST JUMPDEST PUSH0 PUSH2 0x89F DUP5 DUP3 DUP6 ADD PUSH2 0x869 JUMP JUMPDEST SWAP2 POP POP SWAP3 SWAP2 POP POP JUMP JUMPDEST PUSH32 0x4E487B7100000000000000000000000000000000000000000000000000000000 PUSH0 MSTORE PUSH1 0x22 PUSH1 0x4 MSTORE PUSH1 0x24 PUSH0 REVERT JUMPDEST PUSH0 PUSH1 0x2 DUP3 DIV SWAP1 POP PUSH1 0x1 DUP3 AND DUP1 PUSH2 0x8EC JUMPI PUSH1 0x7F DUP3 AND SWAP2 POP JUMPDEST PUSH1 0x20 DUP3 LT DUP2 SUB PUSH2 0x8FF JUMPI PUSH2 0x8FE PUSH2 0x8A8 JUMP JUMPDEST JUMPDEST POP SWAP2 SWAP1 POP JUMP JUMPDEST PUSH32 0x4E487B7100000000000000000000000000000000000000000000000000000000 PUSH0 MSTORE PUSH1 0x12 PUSH1 0x4 MSTORE PUSH1 0x24 PUSH0 REVERT JUMPDEST PUSH0 PUSH2 0x93C DUP3 PUSH2 0x719 JUMP JUMPDEST SWAP2 POP PUSH2 0x947 DUP4 PUSH2 0x719 JUMP JUMPDEST SWAP3 POP DUP3 PUSH2 0x957 JUMPI PUSH2 0x956 PUSH2 0x905 JUMP JUMPDEST JUMPDEST DUP3 DUP3 MOD SWAP1 POP SWAP3 SWAP2 POP POP JUMP JUMPDEST PUSH32 0x4E487B7100000000000000000000000000000000000000000000000000000000 PUSH0 MSTORE PUSH1 0x32 PUSH1 0x4 MSTORE PUSH1 0x24 PUSH0 REVERT JUMPDEST PUSH32 0x4E487B7100000000000000000000000000000000000000000000000000000000 PUSH0 MSTORE PUSH1 0x41 PUSH1 0x4 MSTORE PUSH1 0x24 PUSH0 REVERT JUMPDEST PUSH0 DUP2 SWAP1 POP SWAP2 SWAP1 POP JUMP JUMPDEST PUSH2 0x9D6 PUSH2 0x9D1 DUP3 PUSH2 0x719 JUMP JUMPDEST PUSH2 0x9BC JUMP JUMPDEST DUP3 MSTORE POP POP JUMP JUMPDEST PUSH0 DUP2 SLOAD SWAP1 POP SWAP2 SWAP1 POP JUMP JUMPDEST PUSH0 DUP2 SWAP1 POP SWAP3 SWAP2 POP POP JUMP JUMPDEST PUSH0 DUP2 SWAP1 POP DUP2 PUSH0 MSTORE PUSH1 0x20 PUSH0 KECCAK256 SWAP1 POP SWAP2 SWAP1 POP JUMP JUMPDEST PUSH2 0xA0B DUP2 PUSH2 0x670 JUMP JUMPDEST DUP3 MSTORE POP POP JUMP JUMPDEST PUSH0 PUSH2 0xA1C DUP4 DUP4 PUSH2 0xA02 JUMP JUMPDEST PUSH1 0x20 DUP4 ADD SWAP1 POP SWAP3 SWAP2 POP POP JUMP JUMPDEST PUSH0 DUP2 PUSH0 SHR SWAP1 POP SWAP2 SWAP1 POP JUMP JUMPDEST PUSH0 PUSH20 0xFFFFFFFFFFFFFFFFFFFFFFFFFFFFFFFFFFFFFFFF DUP3 AND SWAP1 POP SWAP2 SWAP1 POP JUMP JUMPDEST PUSH0 PUSH2 0xA64 PUSH2 0xA5F DUP4 PUSH2 0xA28 JUMP JUMPDEST PUSH2 0xA33 JUMP JUMPDEST SWAP1 POP SWAP2 SWAP1 POP JUMP JUMPDEST PUSH0 PUSH2 0xA76 DUP3 SLOAD PUSH2 0xA52 JUMP JUMPDEST SWAP1 POP SWAP2 SWAP1 POP JUMP JUMPDEST PUSH0 PUSH1 0x1 DUP3 ADD SWAP1 POP SWAP2 SWAP1 POP JUMP JUMPDEST PUSH0 PUSH2 0xA93 DUP3 PUSH2 0x9DC JUMP JUMPDEST PUSH2 0xA9D DUP2 DUP6 PUSH2 0x9E6 JUMP JUMPDEST SWAP4 POP PUSH2 0xAA8 DUP4 PUSH2 0x9F0 JUMP JUMPDEST DUP1 PUSH0 JUMPDEST DUP4 DUP2 LT ISZERO PUSH2 0xADF JUMPI PUSH2 0xABC DUP3 PUSH2 0xA6B JUMP JUMPDEST PUSH2 0xAC6 DUP9 DUP3 PUSH2 0xA11 JUMP JUMPDEST SWAP8 POP PUSH2 0xAD1 DUP4 PUSH2 0xA7D JUMP JUMPDEST SWAP3 POP POP PUSH1 0x1 DUP2 ADD SWAP1 POP PUSH2 0xAAB JUMP JUMPDEST POP DUP6 SWAP4 POP POP POP POP SWAP3 SWAP2 POP POP JUMP JUMPDEST PUSH0 PUSH2 0xAF7 DUP3 DUP7 PUSH2 0x9C5 JUMP JUMPDEST PUSH1 0x20 DUP3 ADD SWAP2 POP PUSH2 0xB07 DUP3 DUP6 PUSH2 0x9C5 JUMP JUMPDEST PUSH1 0x20 DUP3 ADD SWAP2 POP PUSH2 0xB17 DUP3 DUP5 PUSH2 0xA89 JUMP JUMPDEST SWAP2 POP DUP2 SWAP1 POP SWAP5 SWAP4 POP POP POP POP JUMP INVALID LOG2 PUSH5 0x6970667358 0x22 SLT KECCAK256 PUSH21 0xFF4A269D7215D4CDD9203A39895FB103CEBDEFC5BE PUSH19 0xE6DB9A2DC807C9529564736F6C634300081900 CALLER "},"gasEstimates":{"creation":{"codeDepositCost":"581200","executionCost":"infinite","totalCost":"infinite"},"external":{"details()":"infinite","enter()":"50863","getPlayers()":"infinite","manager()":"2506","minimumContribution()":"2425","pickWinner()":"infinite","players(uint256)":"5010","winner()":"2530"},"internal":{"random()":"infinite"}},"methodIdentifiers":{"details()":"565974d3","enter()":"e97dcb62","getPlayers()":"8b5b9ccc","manager()":"481c6a75","minimumContribution()":"937e09b1","pickWinner()":"5d495aea","players(uint256)":"f71d96cb","winner()":"dfbf53ae"}},"storageLayout":{"storage":[{"astId":77,"contract":"Lottery.sol:Lottery","label":"manager","offset":0,"slot":"0","type":"t_address"},{"astId":80,"contract":"Lottery.sol:Lottery","label":"players","offset":0,"slot":"1","type":"t_array(t_address)dyn_storage"},{"astId":82,"contract":"Lottery.sol:Lottery","label":"winner","offset":0,"slot":"2","type":"t_address"},{"astId":84,"contract":"Lottery.sol:Lottery","label":"minimumContribution","offset":0,"slot":"3","type":"t_uint256"},{"astId":87,"contract":"Lottery.sol:Lottery","label":"details","offset":0,"slot":"4","type":"t_struct(Details)75_storage"}],"types":{"t_address":{"encoding":"inplace","label":"address","numberOfBytes":"20"},"t_array(t_address)dyn_storage":{"base":"t_address","encoding":"dynamic_array","label":"address[]","numberOfBytes":"32"},"t_string_storage":{"encoding":"bytes","label":"string","numberOfBytes":"32"},"t_struct(Details)75_storage":{"encoding":"inplace","label":"struct Lottery.Details","members":[{"astId":72,"contract":"Lottery.sol:Lottery","label":"title","offset":0,"slot":"0","type":"t_string_storage"},{"astId":74,"contract":"Lottery.sol:Lottery","label":"deadline","offset":0,"slot":"1","type":"t_uint256"}],"numberOfBytes":"64"},"t_uint256":{"encoding":"inplace","label":"uint256","numberOfBytes":"32"}}},"userdoc":{"kind":"user","methods":{},"version":1}}